:1000000001C51BC51AC519C518C517C516C515C51F
:1000100014C513C512C50EC910C50FC50EC50DC533
:100020000CC50BC50AC509C508C507C506C505C564
:1000300004C503C5AED5F0A83FD300408D14200001
:10004000A1C8DA12813FD922DB20A4A62EAF22005C
:100050003F21007F00000000C0F078181C0C0E0645
:100060000E1C1838F0E00000000000000000000046
:100070003F7F6060E0C0C0C0C0C0E0F0FFFF000094
:100080000000000000000000000000000000000070
:10009000000001FFFF030000000000000000000F4F
:1000A0003F7860606060606070383E0F0300000061
:1000B0000000000000000000C0E070381C0E0707C0
:1000C000060E1C78F0C000000000000000000000D8
:1000D0001F3F307060E0C0C0C0E0703E3F030000D2
:1000E0000000000000000000C0F07C1E07030301B8
:1000F000010303073EFCE0000000000000000000D8
:10010000030F1E181818181818181C0E07030100E2
:1001100000000000001018181818181818181818DF
:10012000181818181818F8F830000000000000001F
:100130000000000000000000000000C0FC7F07017C
:100140000000000000000000000000040606068613
:10015000E6FE3E0F07060606040000000000000051
:100160000000000040707C1F07000000000000003D
:100170000000000000000000000080C0E07030308F
:1001800030307060E0C0800000000000000000001F
:10019000F8FE0F038080C0C0C0C0C0800001070708
:1001A0000000000000000000FFFF0E070301010037
:1001B000000001031FFEF00000000000000000002E
:1001C00001070F0C1C1838303030381C0E0F03009C
:1001D00000000000000000F0F8181818181818188F
:1001E0001818181818181810000000000000001F38
:1001F000FFF08080C0C0C0C0C08080000000000050
:1002000000000000000000000303030101000000E3
:10021000010103071EFCF0000000000000000000C8
:100220001C3C3030303030303038181C0F070100A3
:1002300000000000000000000000FCFC00000000C6
:1002400000000000000000000000000000000000AE
:1002500080F0FF1F0000000000000000F0F0000030
:100260000000000000000000030303030303030376
:1002700003030303FFFF030200000000000000006F
:100280000000000000000000000000003F3F0000F0
:100290000000000000000000C0E070303038181886
:1002A00018181838F0E000000000000000000003FB
:1002B00003010000000080808080C0C0F17F1F002B
:1002C0000000000000000000000000000001030327
:1002D0000303070EFCF80000000000000000030705
:1002E000060E0C0C0C0C0C0C0C0C0C0C0F0700006C
:1002F0000000000000000000C0E070381818181856
:100300003870E0C0000000000000000000000000A5
:10031000030300000000000080E0FF3F0000000039
:100320000000000000000000000080C0F0781C0EFB
:10033000070300000000000000000000000000189B
:100340001E1F1B1918181818181818181818181024
:10035000000000000000000000000000000000009D
:10036000C0E0F0F0E000000000000000000000002D
:10037000000080E0F0381C1F0703FFFF03000000AF
:100380000000000000000000000003010000000069
:10039000C0FE7F030000000000000000000000001D
:1003A00000203030303030383F3F30303030303067
:1003B00020000000000000000000C0E070381C08B1
:1003C0000C183870E0C08000000000000000000041
:1003D000FCFF0701000000000000000000010FFF0B
:1003E000F8000000000000007FFFC00000000000D7
:1003F000000000000000E0FF3F00000000000000DF
:10040000000103070E0C1C18181818181C0C0F07F5
:1004100000000000000000000000000000000000DC
:1004200000000000000000F80000000000000033A1
:100430003000000000100C06100C06000000000048
:100440000000000040C07840C0784000043F040431
:100450003F040400007088FC08300000001820FFF2
:10046000211E0000F008F000E018000000211C032D
:100470001E211E0000F00888700000001E212324A9
:100480001927211010160E000000000000000000C7
:1004900000000000000000E0180402000000000757
:1004A0001820400000020418E0000000004020185E
:1004B00007000000404080F0804040000202010F31
:1004C00001020200000000F0000000000101011F15
:1004D00001010100000000000000000080B0700079
:1004E0000000000000000000000000000001010109
:1004F0000101010100000000000000000030300098
:100500000000000000000000806018040060180671
:100510000100000000E010080810E000000F1020AB
:1005200020100F00001010F8000000000020203FF5
:10053000202000000070080808887000003028247F
:100540002221300000300888884830000018202020
:1005500020110E000000C02010F800000007042445
:10056000243F240000F8088888080800001921208A
:1005700020110E0000E0108888180000000F1120E4
:1005800020110E0000380808C83808000000003F9D
:10059000000000000070880808887000001C2221FC
:1005A00021221C0000E010080810E00000003122A9
:1005B00022110F00000000C0C00000000000003049
:1005C000300000000000008000000000000080609B
:1005D000000000000000804020100800000102041C
:1005E0000810200040404040404040000404040403
:1005F00004040400000810204080000000201008BF
:1006000004020100007048080808F00000000030F3
:1006100036010000C030C828E810E0000718272481
:1006200023140B000000C038E0000000203C23022F
:100630000227382008F8888888700000203F202092
:1006400020110E00C03008080808380007182020C4
:100650002010080008F808080810E000203F2020BB
:1006600020100F0008F88888E8081000203F20209C
:100670002320180008F88888E8081000203F200090
:1006800003000000C03008080838000007182020C8
:10069000221E020008F808000008F808203F210187
:1006A00001213F20000808F8080800000020203F32
:1006B0002020000000000808F8080800C0808080A2
:1006C0007F00000008F888C028180800203F20019B
:1006D0002638200008F8080000000000203F2020F5
:1006E0002020300008F8F800F8F80800203F003F0C
:1006F000003F200008F830C00008F808203F200024
:1007000007183F00E01008080810E0000F10202034
:1007100020100F0008F808080808F000203F210109
:1007200001010000E01008080810E0000F18242460
:1007300038504F0008F8888888887000203F2000D3
:10074000030C302000708808080838000038202189
:1007500021221C00180808F8080818000000203F93
:100760002000000008F808000008F808001F2020FA
:1007700020201F000878880000C8380800000738CB
:100780000E010000F80800F80008F800033C07001C
:10079000073C0300081868808068180820302C0384
:1007A000032C30200838C800C83808000000203F5B
:1007B0002000000010080808C8380800203826214A
:1007C00020201800000000FE020202000000007F4E
:1007D00040404000000C30C000000000000000015C
:1007E0000638C00000020202FE0000000040404047
:1007F0007F0000000000040202020400000000006C
:1008000000000000000000000000000080808080E8
:1008100080808080000202040000000000000000D0
:100820000000000000008080808000000019242269
:1008300022223F2008F8008080000000003F1120A5
:1008400020110E000000008080800000000E1120AA
:1008500020201100000000808088F800000E112088
:1008600020103F200000808080800000001F222296
:1008700022221300008080F0888888180020203F02
:10088000202000000000808080808000006B949415
:100890009493600008F8008080800000203F2100D1
:1008A00000203F2000809898000000000020203F9A
:1008B00020200000000000809898000000C0808088
:1008C000807F000008F8000080808000203F240224
:1008D0002D302000000808F8000000000020203F14
:1008E000202000008080808080808000203F2000C9
:1008F0003F20003F8080008080800000203F21005A
:1009000000203F200000808080800000001F202009
:1009100020201F00808000808000000080FFA12038
:1009200020110E000000008080808000000E112049
:1009300020A0FF80808080008080800020203F21D8
:10094000200001000000808080808000003324248B
:1009500024241900008080E0808000000000001F37
:10096000202000008080000000808000001F2020E8
:1009700020103F20808080000080808000010E30A9
:100980000806010080800080008080800F300C030A
:100990000C300F0000808000808080000020312E0D
:1009A0000E312000808080000080808080818E70E9
:1009B0001806010000808080808080000021302C9B
:1009C0002221300000000000807C020200000000B4
:1009D000003F404000000000FF0000000000000059
:1009E000FF0000000002027C800000000040403F49
:1009F00000000000000601010202040400000000E3
:100A00000000000011241FBECFEFD4E0DEBFCDBF39
:100A100011E0A0E0B1E0E2E0FDE102C005900D923E
:100A2000AC36B107D9F721E0ACE6B1E001C01D92C8
:100A3000A138B207E1F7EBD362C9E2CA1CD188E75B
:100A400090E02BD180E090E028D1089514D188E780
:100A500090E023D180E490E020D108950F931F937C
:100A6000CF93DF93EBDFC4E3D0E004E510E0FE01B9
:100A7000849190E012D12196C017D107C1F704D11B
:100A8000DF91CF911F910F910895CF93DF93C82FDE
:100A9000D62FD4DFD7708D2F806B90E0FED08C2FB7
:100AA0008F7090E0FAD0C295CF708C2F806190E06B
:100AB000F4D0EAD0DF91CF910895E6D008956F92F7
:100AC0007F928F929F92AF92BF92CF92DF92EF92DE
:100AD000FF920F931F93CF93DF93882E962E742E41
:100AE000622E621718F5C12CD12CAA24AA94A40E48
:100AF000A81AB12C8FEFA81AB80A692D882DC5DF66
:100B0000A5DF871480F4E801CC0DDD1DCA0CDB1CC9
:100B10007801EC0CFD1CFE01849190E0BED0219682
:100B2000CE15DF05C1F79394961438F3DF91CF917A
:100B30001F910F91FF90EF90DF90CF90BF90AF90FB
:100B40009F908F907F906F900895CF93DF93D0E028
:100B50006D2F80E09ADF7ADFC0E880E090E09DD0E2
:100B6000C150D9F7DF5FD83099F7DF91CF91089561
:100B70009093800180937F0160937E0108958F920E
:100B80009F92AF92BF92CF92DF92EF92FF920F931C
:100B90001F93CF93DF936C01962E842EF901A080D2
:100BA000AA2009F444C07901FFEFEF1AFF0AB12C23
:100BB00080E2A81AB108AA0CBB1CAA0CBB1CAA0C88
:100BC000BB1CAA0CBB1CE8E7E91510F48394912C1C
:100BD000682D892D5ADF3ADF86010A0D1B1DE501BC
:100BE0002896CC0DDD1DF801849190E056D00F5F62
:100BF0001F4F0C171D07B9F747D061E0680D892D0D
:100C000044DF24DF8501005F1F4F0C0D1D1DFE0119
:100C1000849190E042D02196C017D107C1F734D01B
:100C2000F8E09F0EF701A1907F01A110C0CFDF91E6
:100C3000CF911F910F91FF90EF90DF90CF90BF90D9
:100C4000AF909F908F9008959C0140E050E060E449
:100C50007FE180E090E029D5822F203148F030E01C
:100C600020513109C90199230CF401969595879576
:100C70008093B800089584EA8093BC00ECEBF0E028
:100C800080818823ECF7089584E98093BC00ECEB25
:100C9000F0E0808184FFFDCF08958093BB0084E85D
:100CA0008093BC00ECEBF0E080818823ECF70895A2
:100CB00084E690E0C9DFD2DE60E284E194E058DFB0
:100CC000BDDE86EA90E0E9DFF8DE3FDF08950097B9
:100CD000D9F081309105D9F082309105D9F0833077
:100CE0009105D9F084309105D9F085309105D9F07E
:100CF00086309105D9F087309105D9F0883091057B
:100D0000D9F00997E1F0089524EB33E01AC024E507
:100D100033E017C024EF32E014C024E932E011C000
:100D200024E332E00EC024ED31E00BC024E731E0D3
:100D300008C024E131E005C024EB30E002C024E526
:100D400030E0822F932F08950F931F93CF93DF935B
:100D5000C82FD62FCA01BBDF24E02D0F48E14C0F6E
:100D60008C016D2F8C2FABDEDF91CF911F910F91F6
:100D70000895EF92FF920F931F93CF93DF938C010F
:100D80007B01EA0144365105A4F44A3051053CF098
:100D9000CA016AE070E076D4AB01EC0102C040E029
:100DA00050E0B701C801D0DFAE01B701C8014896D5
:100DB000CBDFDF91CF911F910F91FF90EF900895BE
:100DC0009A01462F682F84E194E0D9DE0895EF92CE
:100DD000FF920F931F93CF93DF93EC018B017A0166
:100DE000B4DEA701B801CE01EBDFDF91CF911F91F7
:100DF0000F91FF90EF9008954F925F926F927F92C4
:100E00008F929F92AF92CF92EF920F931F93CF93B7
:100E1000DF9300D0CDB7DEB73C014B012901E110D3
:100E2000A8DF46E051E0B4016F5F7F4FC301C09679
:100E3000C7DFCC2029F0A201B401C301CC9699DF11
:100E4000AA2081F10A30110594F41F930F9388E0D2
:100E500091E09F938F93CE0101969F938F9377D4C8
:100E60000F900F900F900F900F900F9011C01F9345
:100E70000F9389E091E09F938F93CE0101969F930A
:100E80008F9365D40F900F900F900F900F900F904D
:100E9000B401685F7F4FAE014F5F5F4FC30182595E
:100EA0009F4F8EDF0F900F90DF91CF911F910F9189
:100EB000EF90CF90AF909F908F907F906F905F90CA
:100EC0004F90089530D28AE090E090930101809392
:100ED00000010895E6D2811101C0E6D28EE190E0D2
:100EE000909301018093000108951FD3F3DF0895CB
:100EF00082E390E090930101809300014CE051E087
:100F000060E070E080E090E05BDF08958CE390E0CB
:100F1000909301018093000148E151E060E070E0AE
:100F200080E090E04DDF08958091000190910101F3
:100F30008A30910511F431D208958431910511F46C
:100F400050D208958531910511F46CD208958E31F7
:100F5000910511F46AD308958832910511F474D380
:100F600008958932910511F47ED308958233910555
:100F700011F4BEDF0895CC9709F4C8DF08953399C2
:100F80000DC080910001909101010A9739F484E12C
:100F900090E090930101809300010895339908C077
:100FA0008091000190910101449711F494D108952A
:100FB000329909C08091000190910101449709F094
:100FC000D9C09DD108951A990EC0809100019091C9
:100FD0000101449709F0C6C085E190E090930101BA
:100FE00080930001089519990DC08091000190919E
:100FF0000101449739F48AE090E0909301018093D5
:1010000000010895339908C0809100019091010179
:10101000459711F46AD10895329909C08091000171
:1010200090910101459709F0A8C073D108951A99CC
:1010300009C08091000190910101459709F094C089
:1010400041DF089519990DC080910001909101012F
:10105000459739F484E190E0909301018093000179
:10106000089532990DC080910001909101014E9731
:1010700039F488E290E09093010180930001089593
:10108000339908C08091000190910101889711F473
:1010900024D20895329909C08091000190910101F4
:1010A000889709F06DC02DD208951A990EC08091CD
:1010B000000190910101889709F058C089E290E001
:1010C00090930101809300010895199908C08091BF
:1010D000000190910101889711F4FCDE0895339985
:1010E00008C08091000190910101899711F4FFD10E
:1010F0000895329909C0809100019091010189976A
:1011000009F041C008D208951A9908C080910001E1
:1011100090910101899761F5E8DE089519990DC054
:101120008091000190910101899739F488E290E063
:1011300090930101809300010895339907C08AE0DC
:1011400090E090930101809300010895329902C0CC
:10115000C1DE08951A9902C0CBDE0895199916C010
:10116000D5DE089583B14ECF83B17BCF83B1B7CFA6
:1011700083B1E3CF1A9BF6CF36CF1A9BF5CF62CF60
:101180001A9BF4CFA2CF1A9BF3CFC8CF0895DDDC12
:10119000F6DE2FEF81EE94E0215080409040E1F7A1
:1011A00000C00000089501968831910514F080E098
:1011B00090E0089501968C33910514F080E090E062
:1011C000089501968C33910514F080E090E0089525
:1011D000019712F487E190E00895019712F48BE3F0
:1011E00090E0089587B1837F87B984B1897F84B9FE
:1011F0008CE0809381008AE78093890082E180936C
:101200008800EFE6F0E08081826280830895789420
:10121000E9DF4EDD46D1882319F025D18111579A97
:10122000339B05C0329B03C01A9B01C0199BAFDFE3
:101230007BDEF0CF1F920F920FB60F9211242F93E7
:101240003F934F935F936F937F938F939F93AF934E
:10125000BF93EF93FF9311D0FF91EF91BF91AF91A7
:101260009F918F917F916F915F914F913F912F91BE
:101270000F900FBE0F901F901895CF93DF93C091E2
:101280006C01D0916D01CE019CDF90936D01809334
:101290006C01EB97E9F4892B61F4C0917001D09156
:1012A0007101CE0187DF9093710180937001EB97FC
:1012B00079F48091700190917101892B49F48091AA
:1012C0000401909105016FDF909305018093040163
:1012D000DF91CF910895809102019091030163DF26
:1012E0009093030180930201089580916E01909183
:1012F0006F0160DF90936F0180936E01089580917C
:1013000002019091030164DF909303018093020135
:10131000089580916E0190916F015FDF90936F014E
:1013200080936E01089510926D0110926C0180916E
:101330000201909103019093050180930401809133
:101340006E0190916F0190937101809370010895E7
:101350008091040190910501089580917001909110
:101360007101089580916C0190916D010895AF9283
:10137000CF92EF920F931F93AE2CC02EE22E8A01D4
:101380009B01AC0162E070E080E090E035DD1F91F0
:101390000F91EF90CF90AF900895EF92FF920F933F
:1013A0001F9342E251E060E070E080E090E008DDF1
:1013B00040916C0150916D016091700170917101CB
:1013C000EE24E394F12C01E010E021E030E0809184
:1013D000040190910501CBDF1F910F91FF90EF90D9
:1013E0000895EF92FF920F931F9348E251E060E05F
:1013F00070E080E090E0E4DC60916E0170916F013C
:10140000E12CF12C00E010E021E030E040E050E081
:101410008091020190910301AADF1F910F91FF902B
:10142000EF900895EF92FF920F931F9344E351E0E2
:1014300060E070E080E090E0C3DC60916E0170914C
:101440006F01E12CF12C01E010E020E030E040E001
:1014500050E0809102019091030189DF1F910F916B
:10146000FF90EF90089574DF209178013091790119
:101470008217930799F471DF2091760130917701FB
:101480008217930759F46EDF209174013091750132
:101490008217930719F481E08093720180917201A1
:1014A0000895809173010895109272011092730152
:1014B00010927D0110927C0110927B0110927A01B2
:1014C00010927901109278011092770110927601B2
:1014D0001092750110927401089580917C01909191
:1014E0007D0161DE90937D0180937C010895809160
:1014F0007A0190917B015EDE90937B0180937A016B
:10150000089580917C0190917D0162DE90937D0130
:1015100080937C01089580917A0190917B015DDE3A
:1015200090937B0180937A010895809173018111DA
:101530001EC018DF909375018093740109DF20911C
:101540007C0130917D01820F931F909379018093EC
:10155000780103DF20917A0130917B01820F931F84
:10156000909377018093760181E0809373010895D1
:10157000F9DE40917401509175019A01281B390BD5
:10158000121613061CF0841B950B0895C9010895CB
:101590008F929F92AF92CF92EF920F931F93CF9320
:1015A000DF93E82EC62EA42E80917301811110C006
:1015B00020917A0130917B0140917C0150917D0115
:1015C00000E010E062E070E080E090E015DC23C015
:1015D00080917201811118C0CBDF8C01C09176011E
:1015E000D0917701BADEC81BD90B8090780190901A
:1015F0007901AEDEA401481B590B9E0162E070E048
:1016000080E090E0F9DB07C040E451E06CE070E07E
:1016100082E090E0DCDBDF91CF911F910F91EF90A2
:10162000CF90AF909F908F9008954EE451E060E08E
:1016300070E080E090E0C4DB41E050E061E070E009
:1016400081E090E0A5DF089544E551E060E070E0BE
:1016500080E090E0B5DB40E050E060E070E081E0E9
:1016600090E096DF089540E651E060E070E080E0B1
:1016700090E0A6DB40E050E061E070E080E090E0C8
:1016800087DF089597FB072E16F4009406D077FDA8
:1016900008D027D007FC05D03EF4909581959F4F48
:1016A0000895709561957F4F0895052E97FB16F468
:1016B00000940FD057FD05D028D007FC02D046F487
:1016C00008C050954095309521953F4F4F4F5F4F43
:1016D000089590958095709561957F4F8F4F9F4F9E
:1016E0000895AA1BBB1B51E107C0AA1FBB1FA61769
:1016F000B70710F0A61BB70B881F991F5A95A9F7BB
:1017000080959095BC01CD010895A1E21A2EAA1BE7
:10171000BB1BFD010DC0AA1FBB1FEE1FFF1FA217A1
:10172000B307E407F50720F0A21BB30BE40BF50B9E
:10173000661F771F881F991F1A9469F76095709527
:10174000809590959B01AC01BD01CF010895AEE05D
:10175000B0E0ECEAFBE0AAC20D891E8986E08C832A
:101760001A8309838FEF9FE79E838D83AE01475EC7
:101770005F4F6F89788DCE01019608D0EF81F88593
:10178000E00FF11F10822E96E4E0ACC2ABE0B0E0B7
:10179000EBECFBE07DC26C017B018A01FC0117824E
:1017A0001682838181FFBFC1CE0101963C01F60103
:1017B0009381F70193FD859193FF81917F018823A8
:1017C00009F4ADC1853239F493FD859193FF819180
:1017D0007F01853221F4B60190E0C0D1E8CF912C91
:1017E000212C312CFFE1F315D8F08B3279F038F44D
:1017F000803279F08332A1F4232D20611DC08D3217
:1018000061F0803369F4232D216016C0832D82603E
:10181000382EE32DE4603E2E2AC0F32DF8601DC063
:1018200037FC2DC020ED280F2A3040F08E32B9F45D
:1018300036FC75C1232D2064322E19C036FE06C039
:101840008AE0989E200D1124922E11C0EAE02E9E6F
:10185000200D1124222EF32DF0623F2E08C08C366D
:1018600021F4832D8068382E02C0883641F4F701B8
:1018700093FD859193FF81917F018111B3CF982FC3
:101880009F7D9554933028F40C5F1F4F9FE39983FD
:101890000DC0833631F0833771F0833509F055C0C0
:1018A00020C0F801808189830E5F1F4F88248394B4
:1018B000912C530112C02801F2E04F0E511CF80187
:1018C000A080B18036FE03C0692D70E002C06FEFCA
:1018D0007FEFC50138D14C018201F32DFF773F2EF8
:1018E00015C0280122E0420E511CF801A080B180F1
:1018F00036FE03C0692D70E002C06FEF7FEFC501B7
:1019000017D14C01F32DF0683F2E820133FC19C032
:10191000822D90E088169906A0F4B60180E290E04E
:101920001DD12A94F5CFF50137FC859137FE8191C1
:101930005F01B60190E012D121102A9421E0821AB1
:1019400091088114910479F7E1C0843611F0893649
:1019500039F5F80137FE07C060817181828193817A
:101960000C5F1F4F08C060817181072E000C880B2F
:10197000990B0E5F1F4FF32DFF763F2E97FF09C087
:1019800090958095709561957F4F8F4F9F4FF06830
:101990003F2E2AE030E0A3011DD1882E861844C0D6
:1019A000853731F4232D2F7EB22E2AE030E025C07A
:1019B000932D997FB92E8F36C1F018F4883579F0C0
:1019C000AEC0803719F0883721F0A9C0E92FE06157
:1019D000BE2EB4FE0DC0FB2DF460BF2E09C034FE38
:1019E0000AC0292F2660B22E06C028E030E005C0CC
:1019F00020E130E002C020E132E0F801B7FE07C08C
:101A000060817181828193810C5F1F4F06C060816C
:101A1000718180E090E00E5F1F4FA301DBD0882E24
:101A20008618FB2DFF773F2E36FE0DC0232D2E7F0F
:101A3000A22E891458F434FE0BC032FC09C0832D49
:101A40008E7EA82E05C0B82CA32C03C0B82C01C0D4
:101A5000B92CA4FE0FC0FE01E80DF11D808180337A
:101A600021F49A2D997EA92E09C0A2FE06C0B39436
:101A7000B39404C08A2D867809F0B394A3FC10C0F7
:101A8000A0FE06C0B21480F4280C922C9B180DC046
:101A9000B21458F4B60180E290E060D0B394F8CF6D
:101AA000B21418F42B1802C0982C212CA4FE0FC0DD
:101AB000B60180E390E052D0A2FE16C0A1FC03C0A4
:101AC00088E790E002C088E590E0B6010CC08A2D5E
:101AD000867851F0A1FE02C08BE201C080E2A7FC33
:101AE0008DE2B60190E03AD0891430F4B60180E37B
:101AF00090E034D09A94F8CF8A94F301E80DF11D68
:101B00008081B60190E02AD08110F6CF222009F41E
:101B10004ECEB60180E290E021D02A94F7CFF601B4
:101B20008681978102C08FEF9FEF2B96E2E1CCC0B8
:101B3000FC010590615070400110D8F78095909598
:101B40008E0F9F1F0895FC0161507040019001109D
:101B5000D8F7809590958E0F9F1F08950F931F9330
:101B6000CF93DF93FB01238121FD03C08FEF9FEF14
:101B70002CC022FF16C0468157812481358142172F
:101B8000530744F4A081B1819D012F5F3F4F318302
:101B900020838C93268137812F5F3F4F37832683A5
:101BA00014C08B01EC01FB010084F185E02D099547
:101BB000892BE1F6D80116968D919C911797019685
:101BC00017969C938E931697CE01DF91CF911F911C
:101BD0000F910895FA01AA27283051F1203181F19F
:101BE000E8946F936E7F6E5F7F4F8F4F9F4FAF4F25
:101BF000B1E03ED0B4E03CD0670F781F891F9A1F38
:101C0000A11D680F791F8A1F911DA11D6A0F711DEB
:101C1000811D911DA11D20D009F468943F912AE0F7
:101C2000269F11243019305D3193DEF6CF010895DF
:101C3000462F4770405D4193B3E00FD0C9F7F6CF10
:101C4000462F4F70405D4A3318F0495D31FD4052D8
:101C5000419302D0A9F7EACFB4E0A695979587956E
:101C600077956795BA95C9F700976105710508954D
:101C70009B01AC010A2E06945795479537952795F9
:101C8000BA95C9F7620F731F841F951FA01D089591
:101C90002F923F924F925F926F927F928F929F927C
:101CA000AF92BF92CF92DF92EF92FF920F931F936A
:101CB000CF93DF93CDB7DEB7CA1BDB0B0FB6F8941B
:101CC000DEBF0FBECDBF09942A88398848885F845B
:101CD0006E847D848C849B84AA84B984C884DF80CC
:101CE000EE80FD800C811B81AA81B981CE0FD11DB0
:101CF0000FB6F894DEBF0FBECDBFED010895F89486
:021D0000FFCF13
:101D02000A000C000C003A003025640054454D5086
:101D1200455241545552450044415348424F415265
:101D22004400434C4F434B00434C4F434B205345DD
:101D320054204800434C4F434B20534554204D0000
:101D420049542049532054494D45212121005449E9
:101D52004D45520054494D455220534554204800A8
:0C1D620054494D455220534554204D007B
:00000001FF
