:1000000001C51BC51AC519C518C517C516C515C51F
:1000100014C513C512C5C1C810C50FC50EC50DC581
:100020000CC50BC50AC509C508C507C506C505C564
:1000300004C503C5AED5F0A83FD300408D14200001
:10004000A1C8DA12813FD922DB20A4A62EAF22005C
:100050003F21007F00000000C0F078181C0C0E0645
:100060000E1C1838F0E00000000000000000000046
:100070003F7F6060E0C0C0C0C0C0E0F0FFFF000094
:100080000000000000000000000000000000000070
:10009000000001FFFF030000000000000000000F4F
:1000A0003F7860606060606070383E0F0300000061
:1000B0000000000000000000C0E070381C0E0707C0
:1000C000060E1C78F0C000000000000000000000D8
:1000D0001F3F307060E0C0C0C0E0703E3F030000D2
:1000E0000000000000000000C0F07C1E07030301B8
:1000F000010303073EFCE0000000000000000000D8
:10010000030F1E181818181818181C0E07030100E2
:1001100000000000001018181818181818181818DF
:10012000181818181818F8F830000000000000001F
:100130000000000000000000000000C0FC7F07017C
:100140000000000000000000000000040606068613
:10015000E6FE3E0F07060606040000000000000051
:100160000000000040707C1F07000000000000003D
:100170000000000000000000000080C0E07030308F
:1001800030307060E0C0800000000000000000001F
:10019000F8FE0F038080C0C0C0C0C0800001070708
:1001A0000000000000000000FFFF0E070301010037
:1001B000000001031FFEF00000000000000000002E
:1001C00001070F0C1C1838303030381C0E0F03009C
:1001D00000000000000000F0F8181818181818188F
:1001E0001818181818181810000000000000001F38
:1001F000FFF08080C0C0C0C0C08080000000000050
:1002000000000000000000000303030101000000E3
:10021000010103071EFCF0000000000000000000C8
:100220001C3C3030303030303038181C0F070100A3
:1002300000000000000000000000FCFC00000000C6
:1002400000000000000000000000000000000000AE
:1002500080F0FF1F0000000000000000F0F0000030
:100260000000000000000000030303030303030376
:1002700003030303FFFF030200000000000000006F
:100280000000000000000000000000003F3F0000F0
:100290000000000000000000C0E070303038181886
:1002A00018181838F0E000000000000000000003FB
:1002B00003010000000080808080C0C0F17F1F002B
:1002C0000000000000000000000000000001030327
:1002D0000303070EFCF80000000000000000030705
:1002E000060E0C0C0C0C0C0C0C0C0C0C0F0700006C
:1002F0000000000000000000C0E070381818181856
:100300003870E0C0000000000000000000000000A5
:10031000030300000000000080E0FF3F0000000039
:100320000000000000000000000080C0F0781C0EFB
:10033000070300000000000000000000000000189B
:100340001E1F1B1918181818181818181818181024
:10035000000000000000000000000000000000009D
:10036000C0E0F0F0E000000000000000000000002D
:10037000000080E0F0381C1F0703FFFF03000000AF
:100380000000000000000000000003010000000069
:10039000C0FE7F030000000000000000000000001D
:1003A00000203030303030383F3F30303030303067
:1003B00020000000000000000000C0E070381C08B1
:1003C0000C183870E0C08000000000000000000041
:1003D000FCFF0701000000000000000000010FFF0B
:1003E000F8000000000000007FFFC00000000000D7
:1003F000000000000000E0FF3F00000000000000DF
:10040000000103070E0C1C18181818181C0C0F07F5
:1004100000000000000000000000000000000000DC
:1004200000000000000000F80000000000000033A1
:100430003000000000100C06100C06000000000048
:100440000000000040C07840C0784000043F040431
:100450003F040400007088FC08300000001820FFF2
:10046000211E0000F008F000E018000000211C032D
:100470001E211E0000F00888700000001E212324A9
:100480001927211010160E000000000000000000C7
:1004900000000000000000E0180402000000000757
:1004A0001820400000020418E0000000004020185E
:1004B00007000000404080F0804040000202010F31
:1004C00001020200000000F0000000000101011F15
:1004D00001010100000000000000000080B0700079
:1004E0000000000000000000000000000001010109
:1004F0000101010100000000000000000030300098
:100500000000000000000000806018040060180671
:100510000100000000E010080810E000000F1020AB
:1005200020100F00001010F8000000000020203FF5
:10053000202000000070080808887000003028247F
:100540002221300000300888884830000018202020
:1005500020110E000000C02010F800000007042445
:10056000243F240000F8088888080800001921208A
:1005700020110E0000E0108888180000000F1120E4
:1005800020110E0000380808C83808000000003F9D
:10059000000000000070880808887000001C2221FC
:1005A00021221C0000E010080810E00000003122A9
:1005B00022110F00000000C0C00000000000003049
:1005C000300000000000008000000000000080609B
:1005D000000000000000804020100800000102041C
:1005E0000810200040404040404040000404040403
:1005F00004040400000810204080000000201008BF
:1006000004020100007048080808F00000000030F3
:1006100036010000C030C828E810E0000718272481
:1006200023140B000000C038E0000000203C23022F
:100630000227382008F8888888700000203F202092
:1006400020110E00C03008080808380007182020C4
:100650002010080008F808080810E000203F2020BB
:1006600020100F0008F88888E8081000203F20209C
:100670002320180008F88888E8081000203F200090
:1006800003000000C03008080838000007182020C8
:10069000221E020008F808000008F808203F210187
:1006A00001213F20000808F8080800000020203F32
:1006B0002020000000000808F8080800C0808080A2
:1006C0007F00000008F888C028180800203F20019B
:1006D0002638200008F8080000000000203F2020F5
:1006E0002020300008F8F800F8F80800203F003F0C
:1006F000003F200008F830C00008F808203F200024
:1007000007183F00E01008080810E0000F10202034
:1007100020100F0008F808080808F000203F210109
:1007200001010000E01008080810E0000F18242460
:1007300038504F0008F8888888887000203F2000D3
:10074000030C302000708808080838000038202189
:1007500021221C00180808F8080818000000203F93
:100760002000000008F808000008F808001F2020FA
:1007700020201F000878880000C8380800000738CB
:100780000E010000F80800F80008F800033C07001C
:10079000073C0300081868808068180820302C0384
:1007A000032C30200838C800C83808000000203F5B
:1007B0002000000010080808C8380800203826214A
:1007C00020201800000000FE020202000000007F4E
:1007D00040404000000C30C000000000000000015C
:1007E0000638C00000020202FE0000000040404047
:1007F0007F0000000000040202020400000000006C
:1008000000000000000000000000000080808080E8
:1008100080808080000202040000000000000000D0
:100820000000000000008080808000000019242269
:1008300022223F2008F8008080000000003F1120A5
:1008400020110E000000008080800000000E1120AA
:1008500020201100000000808088F800000E112088
:1008600020103F200000808080800000001F222296
:1008700022221300008080F0888888180020203F02
:10088000202000000000808080808000006B949415
:100890009493600008F8008080800000203F2100D1
:1008A00000203F2000809898000000000020203F9A
:1008B00020200000000000809898000000C0808088
:1008C000807F000008F8000080808000203F240224
:1008D0002D302000000808F8000000000020203F14
:1008E000202000008080808080808000203F2000C9
:1008F0003F20003F8080008080800000203F21005A
:1009000000203F200000808080800000001F202009
:1009100020201F00808000808000000080FFA12038
:1009200020110E000000008080808000000E112049
:1009300020A0FF80808080008080800020203F21D8
:10094000200001000000808080808000003324248B
:1009500024241900008080E0808000000000001F37
:10096000202000008080000000808000001F2020E8
:1009700020103F20808080000080808000010E30A9
:100980000806010080800080008080800F300C030A
:100990000C300F0000808000808080000020312E0D
:1009A0000E312000808080000080808080818E70E9
:1009B0001806010000808080808080000021302C9B
:1009C0002221300000000000807C020200000000B4
:1009D000003F404000000000FF0000000000000059
:1009E000FF0000000002027C800000000040403F49
:1009F00000000000000601010202040400000000E3
:100A00000000000011241FBECFEFD4E0DEBFCDBF39
:100A100011E0A0E0B1E0E2E3F3E102C005900D9245
:100A2000AC31B107D9F721E0ACE1B1E001C01D92D2
:100A3000A232B207E1F7D0D27AC4E2CAD3D188E7B2
:100A400090E0E2D180E090E0DFD10895CBD188E75B
:100A500090E0DAD180E490E0D7D108950F931F930E
:100A6000CF93DF93EBDFC4E3D0E004E510E0FE01B9
:100A7000849190E0C9D12196C017D107C1F7BBD1AD
:100A8000DF91CF911F910F910895CF93DF93C82FDE
:100A9000D62FD4DFD7708D2F806B90E0B5D18C2FFF
:100AA0008F7090E0B1D1C295CF708C2F806190E0B3
:100AB000ABD1A1D1DF91CF9108959DD108956F92CF
:100AC0007F928F929F92AF92BF92CF92DF92EF92DE
:100AD000FF920F931F93CF93DF93882E962E742E41
:100AE000622E621718F5C12CD12CAA24AA94A40E48
:100AF000A81AB12C8FEFA81AB80A692D882DC5DF66
:100B0000A5DF871480F4E801CC0DDD1DCA0CDB1CC9
:100B10007801EC0CFD1CFE01849190E075D12196CA
:100B2000CE15DF05C1F79394961438F3DF91CF917A
:100B30001F910F91FF90EF90DF90CF90BF90AF90FB
:100B40009F908F907F906F900895CF93DF93D0E028
:100B50006D2F80E09ADF7ADFC0E880E090E054D12A
:100B6000C150D9F7DF5FD83099F7DF91CF91089561
:100B7000909321018093200160931F0108958F922B
:100B80009F92AF92BF92CF92DF92EF92FF920F931C
:100B90001F93CF93DF936C01962E842EF901A080D2
:100BA000AA2009F444C07901FFEFEF1AFF0AB12C23
:100BB00080E2A81AB108AA0CBB1CAA0CBB1CAA0C88
:100BC000BB1CAA0CBB1CE8E7E91510F48394912C1C
:100BD000682D892D5ADF3ADF86010A0D1B1DE501BC
:100BE0002896CC0DDD1DF801849190E00DD10F5FAA
:100BF0001F4F0C171D07B9F7FED061E0680D892D56
:100C000044DF24DF8501005F1F4F0C0D1D1DFE0119
:100C1000849190E0F9D02196C017D107C1F7EBD0AD
:100C2000F8E09F0EF701A1907F01A110C0CFDF91E6
:100C3000CF911F910F91FF90EF90DF90CF90BF90D9
:100C4000AF909F908F90089584E690E0B4D006DF37
:100C500060E284E194E08CDFF1DE86EA90E0D4D0BB
:100C60002CDF73DF08950097D9F081309105D9F01A
:100C700082309105D9F083309105D9F08430910507
:100C8000D9F085309105D9F086309105D9F08730BB
:100C90009105D9F088309105D9F00997E1F00895D0
:100CA00024EB33E01AC024E533E017C024EF32E030
:100CB00014C024E932E011C024E332E00EC024ED78
:100CC00031E00BC024E731E008C024E131E005C089
:100CD00024EB30E002C024E530E0822F932F08950A
:100CE0000F931F93CF93DF93C82FD62FCA01BBDF7B
:100CF00024E02D0F48E14C0F8C016D2F8C2FDFDE8F
:100D0000DF91CF911F910F910895EF92FF920F9372
:100D10001F93CF93DF938C017B01EA014436510589
:100D2000A4F44A3051053CF0CA016AE070E09AD25E
:100D3000AB01EC0102C040E050E0B701C801D0DFD8
:100D4000AE01B701C8014896CBDFDF91CF911F916B
:100D50000F91FF90EF9008959A01462F682F84E13C
:100D600094E00DDF0895AF92BF92CF92DF92EF92A1
:100D70000F93CF93DF93EC016B0159010111C5DF94
:100D800025E031E0A6014F5F5F4FBE01605D7F4F00
:100D900084E194E0F4DEEE2029F0A501B601CE0155
:100DA000CC96B3DFDF91CF910F91EF90DF90CF9092
:100DB000BF90AF9008959C0140E050E060E47FE177
:100DC00080E090E062D2822F203148F030E0205164
:100DD0003109C90199230CF4019695958795809363
:100DE000B800089584EA8093BC00ECEBF0E08081C9
:100DF0008823ECF7089584E98093BC00ECEBF0E0E5
:100E0000808184FFFDCF08958093BB0084E88093A8
:100E1000BC00ECEBF0E080818823ECF70895EF92C2
:100E20000F9329E030E047E051E060E070E080E0BF
:100E300090E092DF20911C014091030130E050E0EE
:100E4000E09001010091020162E070E080E090E03A
:100E50008ADF0F91EF900895EF920F9325E030E035
:100E60004BE051E060E070E080E090E075DFE09002
:100E700001010091020120E030E040E050E062E03A
:100E800070E080E090E06FDF0F91EF900895EF92B7
:100E90000F9329E030E041E151E060E070E080E054
:100EA00090E05ADF20911C014091030130E050E0B6
:100EB000E09001010091020162E070E080E090E0CA
:100EC00052DF0F91EF900895EF920F9320911E0142
:100ED0004091040130E050E0E090010100910201F6
:100EE00060E070E080E090E03EDF40911D0150E066
:100EF00064E070E08CE390E008DF0F91EF900895DC
:100F0000809100018C3319F1809100018233F9F056
:100F1000809100018E3111F49FDF089580910001CE
:100F2000883221F080910001893211F478DF089530
:100F300080910001813011F4C7DF08958091000194
:100F4000843121F080910001853109F4A0DF0895FA
:100F5000CF93C82FFADDC09300012FE78AE196E016
:100F6000215080409040E1F700C00000CF910895EB
:100F700087B1837F87B984B1897F84B98CE08093FE
:100F800081008AE78093890082E180938800EFE600
:100F9000F0E0808182628083089580910001843135
:100FA00039F09091000181E0983219F480E001C09D
:100FB00080E081708093010180910001853139F0DA
:100FC0009091000181E0993219F480E001C080E045
:100FD00081708093020108957894CADF35DE809194
:100FE0000001813061F0809100018E3141F08091EB
:100FF0000001823321F0809100018C3361F5339937
:1010000008C080910001813021F484E190E0A0DFEC
:10101000C1C0339904C081E090E09ADFBBC032992F
:1010200008C0809100018E3121F488E290E090DFC9
:10103000B1C0329904C08EE190E08ADFABC01A994A
:1010400004C082E390E084DFA5C01999A3C08CE3BB
:1010500090E07EDF9FC080910001843129F0809173
:101060000001883209F042C0339910C08091030119
:1010700090E0D9D0809303012FEF81EE94E02150CE
:1010800080409040E1F700C0000084C0329910C059
:101090008091030190E0DCD0809303012FEF81EE7B
:1010A00094E0215080409040E1F700C0000072C001
:1010B0001A990DC085E190E04BDF2FEF81EE94E0AF
:1010C000215080409040E1F700C0000063C01999B2
:1010D00061C081E090E03CDF2FEF81EE94E0215091
:1010E00080409040E1F700C0000054C080910001B2
:1010F000853109F04FC0339910C080911C0190E0F8
:1011000099D080931C012FEF81EE94E02150804014
:101110009040E1F700C000003DC0329910C08091BE
:101120001C0190E09AD080931C012FEF81EE94E097
:10113000215080409040E1F700C000002BC01A9978
:101140001BC0809103018093040180911C01809356
:101150001E0180911D018091030110921C0181E00C
:1011600090E0F6DE2FEF81EE94E021508040904039
:10117000E1F700C000000EC019990CC084E190E0B6
:10118000E7DE2FEF81EE94E0215080409040E1F7C0
:1011900000C0000002DFB4DE22CF1F920F920FB614
:1011A0000F9211242F933F934F935F936F937F93ED
:1011B0008F939F93AF93BF93CF93EF93FF93C09180
:1011C0001D0180911D0190E03CD080931D01CB3327
:1011D000C1F480911D0181110AC0C0911E0180914E
:1011E0001E0190E027D080931E01CB3351F48091F3
:1011F0001E01811106C08091040190E014D08093FB
:101200000401FF91EF91CF91BF91AF919F918F9189
:101210007F916F915F914F913F912F910F900FBEF2
:101220000F901F90189501968831910514F080E079
:1012300090E0089501968C33910514F080E090E0E1
:10124000089501968C33910514F080E090E00895A4
:10125000019712F487E190E00895019712F48BE36F
:1012600090E0089597FB072E16F4009406D077FDC2
:1012700008D027D007FC05D03EF4909581959F4F6C
:101280000895709561957F4F0895052E97FB16F48C
:1012900000940FD057FD05D028D007FC02D046F4AB
:1012A00008C050954095309521953F4F4F4F5F4F67
:1012B000089590958095709561957F4F8F4F9F4FC2
:1012C0000895AA1BBB1B51E107C0AA1FBB1FA6178D
:1012D000B70710F0A61BB70B881F991F5A95A9F7DF
:1012E00080959095BC01CD010895A1E21A2EAA1B0C
:1012F000BB1BFD010DC0AA1FBB1FEE1FFF1FA217C6
:10130000B307E407F50720F0A21BB30BE40BF50BC2
:10131000661F771F881F991F1A9469F7609570954B
:10132000809590959B01AC01BD01CF010895F89483
:02133000FFCFED
:101332000101010C0C3A005345542054494D4552C9
:0C1342000053455420434C4F434B000027
:00000001FF
