S00F00006D6574656F4D4E2E7372656360
S113000001C51BC51AC519C518C517C516C515C51B
S113001014C513C512C56DC810C50FC50EC50DC5D1
S11300200CC50BC50AC509C508C507C506C505C560
S113003004C503C5AED5F0A83FD300408D142000FD
S1130040A1C8DA12813FD922DB20A4A62EAF220058
S11300503F21007F00000000C0F078181C0C0E0641
S11300600E1C1838F0E00000000000000000000042
S11300703F7F6060E0C0C0C0C0C0E0F0FFFF000090
S1130080000000000000000000000000000000006C
S1130090000001FFFF030000000000000000000F4B
S11300A03F7860606060606070383E0F030000005D
S11300B00000000000000000C0E070381C0E0707BC
S11300C0060E1C78F0C000000000000000000000D4
S11300D01F3F307060E0C0C0C0E0703E3F030000CE
S11300E00000000000000000C0F07C1E07030301B4
S11300F0010303073EFCE0000000000000000000D4
S1130100030F1E181818181818181C0E07030100DE
S113011000000000001018181818181818181818DB
S1130120181818181818F8F830000000000000001B
S11301300000000000000000000000C0FC7F070178
S1130140000000000000000000000004060606860F
S1130150E6FE3E0F0706060604000000000000004D
S11301600000000040707C1F070000000000000039
S11301700000000000000000000080C0E07030308B
S113018030307060E0C0800000000000000000001B
S1130190F8FE0F038080C0C0C0C0C0800001070704
S11301A00000000000000000FFFF0E070301010033
S11301B0000001031FFEF00000000000000000002A
S11301C001070F0C1C1838303030381C0E0F030098
S11301D000000000000000F0F8181818181818188B
S11301E01818181818181810000000000000001F34
S11301F0FFF08080C0C0C0C0C0808000000000004C
S113020000000000000000000303030101000000DF
S1130210010103071EFCF0000000000000000000C4
S11302201C3C3030303030303038181C0F0701009F
S113023000000000000000000000FCFC00000000C2
S113024000000000000000000000000000000000AA
S113025080F0FF1F0000000000000000F0F000002C
S11302600000000000000000030303030303030372
S113027003030303FFFF030200000000000000006B
S11302800000000000000000000000003F3F0000EC
S11302900000000000000000C0E070303038181882
S11302A018181838F0E000000000000000000003F7
S11302B003010000000080808080C0C0F17F1F0027
S11302C00000000000000000000000000001030323
S11302D00303070EFCF80000000000000000030701
S11302E0060E0C0C0C0C0C0C0C0C0C0C0F07000068
S11302F00000000000000000C0E070381818181852
S11303003870E0C0000000000000000000000000A1
S1130310030300000000000080E0FF3F0000000035
S11303200000000000000000000080C0F0781C0EF7
S11303300703000000000000000000000000001897
S11303401E1F1B1918181818181818181818181020
S11303500000000000000000000000000000000099
S1130360C0E0F0F0E0000000000000000000000029
S1130370000080E0F0381C1F0703FFFF03000000AB
S11303800000000000000000000003010000000065
S1130390C0FE7F0300000000000000000000000019
S11303A000203030303030383F3F30303030303063
S11303B020000000000000000000C0E070381C08AD
S11303C00C183870E0C0800000000000000000003D
S11303D0FCFF0701000000000000000000010FFF07
S11303E0F8000000000000007FFFC00000000000D3
S11303F0000000000000E0FF3F00000000000000DB
S1130400000103070E0C1C18181818181C0C0F07F1
S113041000000000000000000000000000000000D8
S113042000000000000000F800000000000000339D
S11304303000000000100C06100C06000000000044
S11304400000000040C07840C0784000043F04042D
S11304503F040400007088FC08300000001820FFEE
S1130460211E0000F008F000E018000000211C0329
S11304701E211E0000F00888700000001E212324A5
S11304801927211010160E000000000000000000C3
S113049000000000000000E0180402000000000753
S11304A01820400000020418E0000000004020185A
S11304B007000000404080F0804040000202010F2D
S11304C001020200000000F0000000000101011F11
S11304D001010100000000000000000080B0700075
S11304E00000000000000000000000000001010105
S11304F00101010100000000000000000030300094
S1130500000000000000000080601804006018066D
S11305100100000000E010080810E000000F1020A7
S113052020100F00001010F8000000000020203FF1
S1130530202000000070080808887000003028247B
S1130540222130000030088888483000001820201C
S113055020110E000000C02010F800000007042441
S1130560243F240000F80888880808000019212086
S113057020110E0000E0108888180000000F1120E0
S113058020110E0000380808C83808000000003F99
S1130590000000000070880808887000001C2221F8
S11305A021221C0000E010080810E00000003122A5
S11305B022110F00000000C0C00000000000003045
S11305C03000000000000080000000000000806097
S11305D00000000000008040201008000001020418
S11305E008102000404040404040400004040404FF
S11305F004040400000810204080000000201008BB
S113060004020100007048080808F00000000030EF
S113061036010000C030C828E810E000071827247D
S113062023140B000000C038E0000000203C23022B
S11306300227382008F8888888700000203F20208E
S113064020110E00C03008080808380007182020C0
S11306502010080008F808080810E000203F2020B7
S113066020100F0008F88888E8081000203F202098
S11306702320180008F88888E8081000203F20008C
S113068003000000C03008080838000007182020C4
S1130690221E020008F808000008F808203F210183
S11306A001213F20000808F8080800000020203F2E
S11306B02020000000000808F8080800C08080809E
S11306C07F00000008F888C028180800203F200197
S11306D02638200008F8080000000000203F2020F1
S11306E02020300008F8F800F8F80800203F003F08
S11306F0003F200008F830C00008F808203F200020
S113070007183F00E01008080810E0000F10202030
S113071020100F0008F808080808F000203F210105
S113072001010000E01008080810E0000F1824245C
S113073038504F0008F8888888887000203F2000CF
S1130740030C302000708808080838000038202185
S113075021221C00180808F8080818000000203F8F
S11307602000000008F808000008F808001F2020F6
S113077020201F000878880000C8380800000738C7
S11307800E010000F80800F80008F800033C070018
S1130790073C0300081868808068180820302C0380
S11307A0032C30200838C800C83808000000203F57
S11307B02000000010080808C83808002038262146
S11307C020201800000000FE020202000000007F4A
S11307D040404000000C30C0000000000000000158
S11307E00638C00000020202FE0000000040404043
S11307F07F00000000000402020204000000000068
S113080000000000000000000000000080808080E4
S113081080808080000202040000000000000000CC
S11308200000000000008080808000000019242265
S113083022223F2008F8008080000000003F1120A1
S113084020110E000000008080800000000E1120A6
S113085020201100000000808088F800000E112084
S113086020103F200000808080800000001F222292
S113087022221300008080F0888888180020203FFE
S1130880202000000000808080808000006B949411
S11308909493600008F8008080800000203F2100CD
S11308A000203F2000809898000000000020203F96
S11308B020200000000000809898000000C0808084
S11308C0807F000008F8000080808000203F240220
S11308D02D302000000808F8000000000020203F10
S11308E0202000008080808080808000203F2000C5
S11308F03F20003F8080008080800000203F210056
S113090000203F200000808080800000001F202005
S113091020201F00808000808000000080FFA12034
S113092020110E000000008080808000000E112045
S113093020A0FF80808080008080800020203F21D4
S11309402000010000008080808080000033242487
S113095024241900008080E0808000000000001F33
S1130960202000008080000000808000001F2020E4
S113097020103F20808080000080808000010E30A5
S11309800806010080800080008080800F300C0306
S11309900C300F0000808000808080000020312E09
S11309A00E312000808080000080808080818E70E5
S11309B01806010000808080808080000021302C97
S11309C02221300000000000807C020200000000B0
S11309D0003F404000000000FF0000000000000055
S11309E0FF0000000002027C800000000040403F45
S11309F000000000000601010202040400000000DF
S1130A000000000011241FBECFEFD4E0DEBFCDBF35
S1130A1011E0A0E0B1E0E0E2F2E102C005900D9245
S1130A20AC31B107D9F721E0ACE1B1E001C01D92CE
S1130A30A632B207E1F7FED2F1C3E2CA9C0140E05C
S1130A4050E060E47FE180E090E096D3822F203193
S1130A5048F030E020513109C90199230CF4019682
S1130A60959587958093B800089584EA8093BC0097
S1130A70ECEBF0E080818823ECF7089584E980931F
S1130A80BC00ECEBF0E0808184FFFDCF08958093FF
S1130A90BB0084E88093BC00ECEBF0E08081882309
S1130AA0ECF70895E2DF88E7F2DF80E0F0DF0895F5
S1130AB0DCDF88E7ECDF80E4EADF08950F931F931F
S1130AC0CF93DF93EFDFC4E3D0E004E510E0FE0151
S1130AD08491DDDF2196C017D107C9F7CFDFDF91FD
S1130AE0CF911F910F910895CF93DF93C82FD62FE5
S1130AF0D9DF8D2F8770806BCADF8C2F8F70C7DF93
S1130B008C2F82958F708061C2DFB8DFDF91CF9127
S1130B1008956F927F928F929F92AF92BF92CF92DD
S1130B20DF92EF92FF920F931F93CF93DF93882E60
S1130B30962E742E622E621710F5C12CD12CAA2485
S1130B40AA94A40EA81AB12C8FEFA81AB80A692D7A
S1130B50882DCADFADDF871478F4E801CC0DDD1DE4
S1130B60CA0CDB1C7801EC0CFD1CFE0184918FDFA8
S1130B702196CE15DF05C9F79394961440F3DF91BF
S1130B80CF911F910F91FF90EF90DF90CF90BF9086
S1130B90AF909F908F907F906F900895CF93DF9345
S1130BA0D0E06D2F80E0A0DF83DFC0E880E06FDF5E
S1130BB0C150E1F7DF5FD830A1F7DF91CF910895FD
S1130BC08F929F92AF92BF92CF92DF92EF92FF9259
S1130BD00F931F93CF93DF936C01962E842EF9010C
S1130BE0A080AA2009F442C07901FFEFEF1AFF0A9E
S1130BF0B12C80E2A81AB108AA0CBB1CAA0CBB1C1D
S1130C00AA0CBB1CAA0CBB1CE8E7E91510F48394DE
S1130C10912C682D892D68DF4BDF86010A0D1B1D81
S1130C20E5012896CC0DDD1DF801849130DF0F5FBE
S1130C301F4F0C171D07C1F721DF61E0680D892DD7
S1130C4053DF36DF8501005F1F4F0C0D1D1DFE01B4
S1130C5084911DDF2196C017D107C9F70FDFF8E093
S1130C609F0EF701A1907F01A110C2CFDF91CF9118
S1130C701F910F91FF90EF90DF90CF90BF90AF90B6
S1130C809F908F9008950097D9F081309105D9F005
S1130C9082309105D9F083309105D9F084309105E3
S1130CA0D9F085309105D9F086309105D9F0873097
S1130CB09105D9F088309105D9F00997E1F00895AC
S1130CC024EB33E01AC024E533E017C024EF32E00C
S1130CD014C024E932E011C024E332E00EC024ED54
S1130CE031E00BC024E731E008C024E131E005C065
S1130CF024EB30E002C024E530E0822F932F0895E6
S1130D00CF92DF92EF92FF920F931F93CF93DF93D3
S1130D10C82FD62F7A0149305105CCF46894CC24DD
S1130D20C2F8C60E0F2EF8E1DF2EF02DDC0E04EB18
S1130D3013E02C2D4D2D8C2FECDEC701A4DF40E3F6
S1130D404C0F8C012C2D6D2F8D2DE3DE22C04336EC
S1130D505105FCF4CA016AE070E0FBD16C01CB01DF
S1130D6092DF6894EE24E2F8ED0E0F2EF8E1FF2EE8
S1130D70F02DFC0E8C012E2D4F2D6D2F8C2FC9DEE6
S1130D80C60181DF40E34C0F8C012E2D6D2F8F2D7A
S1130D90C0DEDF91CF911F910F91FF90EF90DF9014
S1130DA0CF9008950F931F9304E912E024E048E1E3
S1130DB060E080E0AEDE1F910F9108950F931F93C2
S1130DC004EF12E024E048E160E080E0A2DE1F913D
S1130DD00F91089581E080931C0123E031E040E00D
S1130DE060E084E194E0ECDE25E031E040E068E09E
S1130DF084E194E0E5DE27E031E040E060E184E175
S1130E0094E0DEDE29E031E040E068E184E194E052
S1130E10D7DE27E031E040E060E284E194E0D0DE18
S1130E202BE031E040E068E284E194E0C9DE2DE0AB
S1130E3031E040E060E384E194E0C2DE25E031E0AB
S1130E4040E068E384E194E0BBDE2FE031E040E081
S1130E5060E484E194E0B4DE089540E050E060E0B2
S1130E6070E080E090E04CDF21E131E041E060E3BC
S1130E7084E194E0A5DE40E050E060E070E08CE3C3
S1130E8090E03EDF089581E080931D0123E031E08E
S1130E9040E060E084E194E093DE25E031E040E06E
S1130EA068E084E194E08CDE27E031E040E060E13A
S1130EB084E194E085DE29E031E040E068E184E10A
S1130EC094E07EDE23E131E040E060E284E194E0FE
S1130ED077DE25E131E040E068E284E194E070DE11
S1130EE027E131E040E060E384E194E069DE23E15E
S1130EF031E040E068E384E194E062DE29E131E03E
S1130F0040E060E484E194E05BDE4091010150E064
S1130F1062E070E080E090E0F3DE21E131E043E064
S1130F2060E384E194E04CDE40911F0150E062E014
S1130F3070E08CE390E0E4DE08954091020150E01B
S1130F4060E070E080E090E0DBDE21E131E041E050
S1130F5060E384E194E034DE4091210150E060E0FC
S1130F6070E08CE390E0CCDE4091200150E064E03E
S1130F7070E08CE390E0C4DE0895809100018C332E
S1130F8011F410DF089580910001823311F416DF0B
S1130F900895809100018E3111F45FDF08958091EE
S1130FA00001883211F416DF089580910001813028
S1130FB011F4C3DF089580910001843109F463DFE3
S1130FC00895CF93C82FEADDC09300012FE78AE18B
S1130FD096E0215080409040E1F700C00000CF919E
S1130FE0089587B1837F87B984B1897F84B98CE000
S1130FF0809381008AE78093890082E1809388004E
S1131000EFE6F0E0808182628083089584E690E0D8
S113101015DD1092250152DD84E194E090932401C2
S11310208093230180E2809322013CDD86EA2FDD58
S113103025DD08957894D5DFE9DFD0E0C0E0809124
S11310401D01811130C080911C01811149C0339967
S113105008C080910001813021F484E190E0B1DF87
S113106046C0339904C081E090E0ABDF40C03299C0
S113107008C0809100018E3121F488E290E0A1DF64
S113108036C0329904C08EE190E09BDF30C01A99DB
S113109004C082E390E095DF2AC0199928C08CE34C
S11310A090E08FDF24C0199905C010921D0181E0E2
S11310B090E087DF33991BC08091010190E0019695
S11310C0893191050CF08D2F809301012FEF81EE72
S11310D094E0215080409040E1F700C0000007C038
S11310E0199905C010921C018EE190E06ADF45DF7A
S11310F0A6CF1F920F920FB60F9211248F93809157
S113110020018F5F80932001809120018C33D8F0DF
S113111010922001809121018F5F809321018091A1
S113112021018C3368F010922101809102018F5FBC
S11311308093020180910201883110F01092020123
S113114081E080931E018F910F900FBE0F901F902E
S1131150189597FB072E16F4009406D077FD08D057
S113116027D007FC05D03EF4909581959F4F0895B4
S1131170709561957F4F0895052E97FB16F40094A2
S11311800FD057FD05D028D007FC02D046F408C084
S113119050954095309521953F4F4F4F5F4F08959F
S11311A090958095709561957F4F8F4F9F4F0895CF
S11311B0AA1BBB1B51E107C0AA1FBB1FA617B70779
S11311C010F0A61BB70B881F991F5A95A9F7809595
S11311D09095BC01CD010895A1E21A2EAA1BBB1B58
S11311E0FD010DC0AA1FBB1FEE1FFF1FA217B307EF
S11311F0E407F50720F0A21BB30BE40BF50B661F05
S1131200771F881F991F1A9469F7609570958095C8
S113121090959B01AC01BD01CF010895F894FFCFD7
S1131220010C0C530045005400200049004D0052AD
S10F1230003A0043004C004F004B00004B
S9030000FC
