S00F00006D6574656F4D4E2E7372656360
S113000001C21BC21AC219C218C217C216C215C233
S113001014C213C212C2E3C610C20FC20EC20DC272
S11300200CC20BC20AC209C208C207C206C205C278
S113003004C203C2AED5F0A83FD300408D14200003
S1130040A1C8DA12813FD922DB20A4A62EAF220058
S11300503F21007F000000000000000000000000BD
S113006000000000000000F8000000000000003361
S11300703000000000100C06100C06000000000008
S11300800000000040C07840C0784000043F0404F1
S11300903F040400007088FC08300000001820FFB2
S11300A0211E0000F008F000E018000000211C03ED
S11300B01E211E0000F00888700000001E21232469
S11300C01927211010160E00000000000000000087
S11300D000000000000000E0180402000000000717
S11300E01820400000020418E0000000004020181E
S11300F007000000404080F0804040000202010FF1
S113010001020200000000F0000000000101011FD4
S113011001010100000000000000000080B0700038
S113012000000000000000000000000000010101C8
S11301300101010100000000000000000030300057
S11301400000000000000000806018040060180631
S11301500100000000E010080810E000000F10206B
S113016020100F00001010F8000000000020203FB5
S1130170202000000070080808887000003028243F
S113018022213000003008888848300000182020E0
S113019020110E000000C02010F800000007042405
S11301A0243F240000F8088888080800001921204A
S11301B020110E0000E0108888180000000F1120A4
S11301C020110E0000380808C83808000000003F5D
S11301D0000000000070880808887000001C2221BC
S11301E021221C0000E010080810E0000000312269
S11301F022110F00000000C0C00000000000003009
S1130200300000000000008000000000000080605A
S113021000000000000080402010080000010204DB
S113022008102000404040404040400004040404C2
S1130230040404000008102040800000002010087E
S113024004020100007048080808F00000000030B3
S113025036010000C030C828E810E0000718272441
S113026023140B000000C038E0000000203C2302EF
S11302700227382008F8888888700000203F202052
S113028020110E00C0300808080838000718202084
S11302902010080008F808080810E000203F20207B
S11302A020100F0008F88888E8081000203F20205C
S11302B02320180008F88888E8081000203F200050
S11302C003000000C0300808083800000718202088
S11302D0221E020008F808000008F808203F210147
S11302E001213F20000808F8080800000020203FF2
S11302F02020000000000808F8080800C080808062
S11303007F00000008F888C028180800203F20015A
S11303102638200008F8080000000000203F2020B4
S11303202020300008F8F800F8F80800203F003FCB
S1130330003F200008F830C00008F808203F2000E3
S113034007183F00E01008080810E0000F102020F4
S113035020100F0008F808080808F000203F2101C9
S113036001010000E01008080810E0000F18242420
S113037038504F0008F8888888887000203F200093
S1130380030C302000708808080838000038202149
S113039021221C00180808F8080818000000203F53
S11303A02000000008F808000008F808001F2020BA
S11303B020201F000878880000C83808000007388B
S11303C00E010000F80800F80008F800033C0700DC
S11303D0073C0300081868808068180820302C0344
S11303E0032C30200838C800C83808000000203F1B
S11303F02000000010080808C8380800203826210A
S11304002020180011241FBECFEFD4E0DEBFCDBFE3
S113041011E0A0E0B1E0ECEDFAE102C005900D922C
S1130420A436B107D9F721E0A4E6B1E001C01D92DA
S1130430A038B207E1F7C5D44FCBE2CD2FEF83ED5F
S113044090E3215080409040E1F700C000001092FA
S11304506C01089580916C010895CF92DF92EF9220
S1130460FF92CF93DF9300D000D01F92CDB7DEB7B9
S1130470682F792FFE01319685E0DF011D928A9560
S1130480E9F710926C015E98569A8FE39CE9019704
S1130490F1F700C000005E9A56982FE10AC095E07B
S11304A09A95F1F70000215021F484E080936C01C7
S11304B08FC04E99F4CF80916C01882359F088C085
S11304C0A5E0AA95F1F70000215029F484E0809377
S11304D06C010EC023E34E9BF3CF0AC0B5E0BA957E
S11304E0F1F70000215029F484E080936C0170C07E
S11304F023E34E99F3CF80916C01882309F443C020
S113050067C085E08A95F1F70000215031F45093DB
S11305106C0145E034C0422F24E24E9BF2CF20917F
S11305206C01211129C09DE59A95F1F700004E9BBD
S11305301EC0E1E0F0E0EC0FFD1FE40FF11D20818F
S1130540D701C601032E04C0880F991FAA1FBB1F21
S11305500A94D2F7822B80830AC0A5E0AA95F1F70A
S11305600000215029F450936C01242F06C023E38A
S11305704E99F3CF242F01C0242F315062F64F5FE0
S1130580453038F008C040E0C12CD12C7601C3942A
S113059054E037E0C1CF80916C01811119C0998179
S11305A08A81980F8B81980F8C81890F9D8189177F
S11305B021F083E080936C010BC0DE011196E62FDD
S11305C0F72FCE0105962D912193A817B907D9F7D6
S11305D080916C010F900F900F900F900F90DF910E
S11305E0CF91FF90EF90DF90CF9008958F929F92DC
S11305F0AF92BF92CF92DF92EF92FF920F931F932D
S1130600CF93DF9300D000D0CDB7DEB78C017B0150
S113061019821A821B821C82CE0101961EDF81116F
S113062069C06C818B81882374F48F7770E0782B98
S1130630072E000C880B990B85D620E030E040E2B1
S113064051EC16D60CC070E0782B072E000C880BEA
S1130650990B78D620E030E040E251E409D6F80165
S11306606083718382839383698170E0762F662728
S11306708A81682B072E000C880B990B63D620E027
S113068030E040E251E4F4D54B015C01F7016083B2
S1130690718382839383F801C080D180E280F380E8
S11306A020E030E040E252ECC701B601DDD58823FA
S11306B04CF020E030E040EA52E4C701B601F2D643
S11306C0181624F482E080936C0114C020E030E01A
S11306D0A901C501B401C8D588234CF020E030E05D
S11306E048EC52E4C501B401DDD618161CF481E0CF
S11306F080936C0180916C010F900F900F900F907C
S1130700DF91CF911F910F91FF90EF90DF90CF90E9
S1130710BF90AF909F908F900895D6D088E790E0D7
S1130720E5D080E090E0E2D00895CED088E790E074
S1130730DDD080E490E0DAD008950F931F93CF9337
S1130740DF93EBDFC4E3D0E004E510E0FE01849125
S113075090E0CCD02196C017D107C1F7BED0DF916D
S1130760CF911F910F910895CF93DF93C82FD62F68
S1130770D4DFD7708D2F806B90E0B8D08C2F8F7022
S113078090E0B4D0C295CF708C2F806190E0AED051
S1130790A4D0DF91CF910895A0D00895CF93DF9393
S11307A0D0E06D2F80E0E0DFC0DFC0E880E090E0C3
S11307B09DD0C150D9F7DF5FD83099F7DF91CF9141
S11307C0089590936F0180936E0160936D01089575
S11307D08F929F92AF92BF92CF92DF92EF92FF924D
S11307E00F931F93CF93DF936C01962E842EF90100
S11307F0A080AA2009F444C07901FFEFEF1AFF0A90
S1130800B12C80E2A81AB108AA0CBB1CAA0CBB1C10
S1130810AA0CBB1CAA0CBB1CE8E7E91510F48394D2
S1130820912C682D892DA0DF80DF86010A0D1B1D08
S1130830E5012896CC0DDD1DF801849190E056D099
S11308400F5F1F4F0C171D07B9F747D061E0680D04
S1130850892D8ADF6ADF8501005F1F4F0C0D1D1D86
S1130860FE01849190E042D02196C017D107C1F7D0
S113087034D0F8E09F0EF701A1907F01A110C0CF02
S1130880DF91CF911F910F91FF90EF90DF90CF9068
S1130890BF90AF909F908F9008959C0140E050E0EE
S11308A060E47FE180E090E001D6822F203148F0BF
S11308B030E020513109C90199230CF40196959532
S11308C087958093B800089584EA8093BC00ECEB8C
S11308D0F0E080818823ECF7089584E98093BC00DC
S11308E0ECEBF0E0808184FFFDCF08958093BB00A2
S11308F084E88093BC00ECEBF0E080818823ECF783
S1130900089584E690E0C9DF18DF60E284E590E0B2
S113091058DF03DF86EA90E0E9DF3EDF3FDF08953A
S11309209A01462F682F84E590E052DF08950F93D3
S11309301F93CF93DF9300D0CDB7DEB7082F162FC8
S11309404A3090F41F924F9381E091E09F938F93EC
S1130950CE0101969F938F93E7D50F900F900F9040
S11309600F900F900F9011C01F924F9382E091E06F
S11309709F938F93CE0101969F938F93D5D50F901C
S11309800F900F900F900F900F9068E0610FAE01E1
S11309904F5F5F4F8EE6800FC3DF0F900F90DF91A4
S11309A0CF911F910F910895AF92CF92EF920F9331
S11309B01F93CF93DF93D82FC62F122FE110B7DFE9
S11309C045E051E061E06C0F80E38D0FA9DFCC209E
S11309D029F0412F6C2F8CE38D0FA9DFAA2031F071
S11309E068E06C0F402F8EE68D0FA1DFDF91CF9171
S11309F01F910F91EF90CF90AF90089547E051E091
S1130A0062E082E08DDF47E051E064E082E088DF6D
S1130A1047E051E066E082E083DF089580910001C1
S1130A208A3011F4F3D208958B3011F40ED3089563
S1130A308C3011F427D30895843111F4EED3089542
S1130A40853111F4F7D30895863111F400D4089553
S1130A50883211F434D308958E3111F447D20895B5
S1130A608F3111F460D20895803209F479D2089557
S1130A70B0D28AE0809300010895809174018111BD
S1130A8001C047D384E180930001089580917401EB
S1130A90882321F08091710181113BD385E18093FA
S1130AA00001089542D3E9DF0895BED18EE1809319
S1130AB000010895B9D18FE1809300010895C0D158
S1130AC0F4DF0895339908C0809100018A3021F43D
S1130AD08BE0809300010895339906C08091000152
S1130AE08B3011F433D10895329907C080910001FD
S1130AF08B3009F0F6C03CD108951A9909C0809151
S1130B0000018B3009F0E1C08CE08093000108956E
S1130B10199908C0809100018B3021F48AE08093F8
S1130B2000010895339906C0809100018C3011F4BE
S1130B3016D10895329907C0809100018C3009F0D4
S1130B40D3C01ED108951A9907C0809100018C303A
S1130B5009F0BDC08DDF0895199908C08091000186
S1130B608C3021F48BE0809300010895329906C003
S1130B7080910001843111F489DF0895339906C00E
S1130B8080910001853111F4E1D00895329907C0B4
S1130B9080910001853109F0AAC0EAD008951A991C
S1130BA009C080910001853109F093C086E18093EA
S1130BB000010895199906C080910001853111F44E
S1130BC05CDF0895339906C080910001863111F4E9
S1130BD0C6D00895329907C080910001863109F08A
S1130BE089C0CED008951A9907C08091000186313A
S1130BF009F071C057DF0895199906C0809100016A
S1130C00863111F443DF08951A9906C080910001DA
S1130C108E3111F44FDF0895339906C0809100019D
S1130C208F3111F493D00895329907C08091000157
S1130C308F3109F062C09CD008951A9909C080913F
S1130C4000018F3109F049C080E2809300010895CA
S1130C50199906C0809100018F3111F426DF08959F
S1130C60339906C080910001803211F478D0089540
S1130C70329907C080910001803209F041C080D0D0
S1130C8008951A9906C080910001803241F517DF5A
S1130C900895199906C080910001803211F40ADF89
S1130CA00895339904C08AE080930001089532992D
S1130CB002C0E3DE08951A9902C0F7DE0895199977
S1130CC022C088E280930001089583B12BCF83B1C1
S1130CD04DCF83B177CF83B197CF83B1C1CF83B1E8
S1130CE0E0CF1A9BF2CF14CF1A9BF1CF35CF1A9BCA
S1130CF0F0CF60CF1A9BEFCF7FCF1A9BEECFA8CF58
S1130D001A9BEDCFC6CF089549DDDCDE2FEF81EECF
S1130D1094E0215080409040E1F700C00000089525
S1130D208F5F88310CF080E008958F5F8C330CF076
S1130D3080E008958F5F8C330CF080E0089510926A
S1130D4077011092750110927601089580917701D0
S1130D508F5F88310CF080E0809377010895809153
S1130D6075018F5F8C330CF080E0809375010895DA
S1130D708091770181500AF487E180937701089587
S1130D808091750181500AF48BE380937501089575
S1130D9087B1837F87B984B1897F84B9209A8AB166
S1130DA0806A8AB98CE0809381008AE78093890005
S1130DB082E180938800EFE6F0E0808182628083A4
S1130DC008957894E5DF9DDD39DB339B05C0329BC4
S1130DD003C01A9B01C0199B97DF20DEF6CF1F9238
S1130DE00F920FB60F9211242F933F934F935F935B
S1130DF06F937F938F939F93AF93BF93EF93FF93DF
S1130E00CCD0A5D12FD0FF91EF91BF91AF919F91FD
S1130E108F917F916F915F914F913F912F910F909F
S1130E200FBE0F901F9018958ADF109268011092E0
S1130E306701109266011092650110926401089591
S1130E408091670181110DC0109264018091770136
S1130E5080936601809175018093650181E08093A0
S1130E6067010895809167018823C9F08091680122
S1130E70811115C0909173018091660198130FC080
S1130E809091700180916501981309C0909172014D
S1130E9080916401981303C081E0809368010895F0
S1130EA0AF92CF92EF920F939091670191110AC084
S1130EB0AE2CC02EE22E042F262F482F62E080E0B5
S1130EC073DD0FC09091680191110AC0AE2CC02E41
S1130ED0E22E042F262F482F62E080E065DD01C05A
S1130EE08DDD0F91EF90CF90AF900895EF92FF9228
S1130EF00F931F9345E151E060E080E011DD6091C4
S1130F00650170E080916601E12CF12C01E010E0B4
S1130F1021E030E040E050E090E0C2DF1F910F910B
S1130F20FF90EF900895EF92FF920F931F934BE180
S1130F3051E060E080E0F4DC6091750170E0809144
S1130F407701E12CF12C00E010E021E030E040E0FA
S1130F5050E090E0A5DF1F910F91FF90EF9008956E
S1130F60EF92FF920F931F9347E251E060E080E01D
S1130F70D7DC6091750170E080917701E12CF12C50
S1130F8001E010E020E030E040E050E090E088DF55
S1130F901F910F91FF90EF900895CF93C09172012C
S1130FA08C2FC8DE80937201CB3389F4811108C081
S1130FB0C09170018C2FB9DE80937001CB3339F46A
S1130FC080917301811103C0ABDE80937301CF91D3
S1130FD0089510927201809177018093730180913A
S1130FE07501809370010895AF92CF92EF920F93A1
S1130FF0AE2CC02EE22E042F262F482F62E080E074
S1131000D3DC0F91EF90CF90AF900895EF92FF92C1
S11310100F931F9343E351E060E080E081DC409153
S1131020720150E06091700170E080917301EE24D0
S1131030E394F12C01E010E021E030E090E0D4DF13
S11310401F910F91FF90EF900895EF92FF920F93ED
S11310501F9349E351E060E080E062DC6091750138
S113106070E080917701E12CF12C00E010E021E0A8
S113107030E040E050E090E0B7DF1F910F91FF9027
S1131080EF900895EF92FF920F931F9345E451E080
S113109060E080E045DC6091750170E0809177014B
S11310A0E12CF12C01E010E020E030E040E050E0E1
S11310B090E09ADF1F910F91FF90EF900895CF93E6
S11310C0DF93CDB7DEB72A970FB6F894DEBF0FBE15
S11310D0CDBF41E551E060E070E080E090E020DCCD
S11310E06CE771E088E791E081DAB4D9811108C036
S11310F0AE014F5F5F4F62E070E080E090E010DC93
S11311002A960FB6F894DEBF0FBECDBFDF91CF9104
S1131110089515DE109271011092740110926B0102
S113112010926A01109269010895809174018111ED
S11311300DC0109269018091770180936B018091B9
S1131140750180936A0181E0809374010895809110
S11311507101811136C080917401882391F18091CD
S1131160690181110CC080916A01811126C08091AE
S11311706B01811122C081E0809371010895815037
S113118080936901882354F480916A01882354F080
S11311909BE390936901815080936A0180916A0175
S11311A088237CF480916B0118165CF49BE3909384
S11311B06A01815080936B0108958FEF80936901D8
S11311C0E3CF0895AF92CF92EF920F939091740171
S11311D091110CC0A42EC62EE82E00E020917501BA
S11311E04091770162E080E0DFDB12C090917101F1
S11311F091110DC0A42EC62EE82E009169012091F4
S11312006A0140916B0162E080E0CEDB01C0F6DB55
S11312100F91EF90CF90AF9008954DE551E060E0CD
S113122080E07EDB41E050E061E070E081E090E04E
S1131230C9DF08954BE151E060E080E071DB40E0FC
S113124050E060E070E081E090E0BCDF089547E2A8
S113125051E060E080E064DB40E050E061E070E099
S113126080E090E0AFDF0895A8D008F481E008950D
S11312700CD0DEC0D6D040F0CDD030F021F45F3FAA
S113128019F0BFC0511108C1C2C0E3D098F399232B
S1131290C9F35523B1F3951B550BBB27AA27621736
S11312A07307840738F09F5F5F4F220F331F441F7B
S11312B0AA1FA9F333D00E2E3AF0E0E830D09150B3
S11312C05040E695001CCAF729D0FE2F27D0660FA0
S11312D0771F881FBB1F261737074807AB07B0E8DF
S11312E009F0BB0B802DBF01FF2793585F4F2AF0F5
S11312F09E3F510568F085C0CFC05F3FECF3983E38
S1131300DCF3869577956795B795F7959F5FC9F751
S1131310880F911D9695879597F90895E1E0660FDA
S1131320771F881FBB1F621773078407BA0720F053
S1131330621B730B840BBA0BEE1F88F7E0950895BC
S1131340E89409C097FB3EF490958095709561955B
S11313507F4F8F4F9F4F9923A9F0F92F96E9BB2711
S11313609395F695879577956795B795F111F8CF8D
S1131370FAF4BB0F11F460FF1BC06F5F7F4F8F4FF8
S11313809F4F16C0882311F096E911C0772321F0EE
S11313909EE8872F762F05C0662371F096E8862F86
S11313A070E060E02AF09A95660F771F881FDAF7DD
S11313B0880F9695879597F90895990F0008550F0A
S11313C0AA0BE0E8FEEF16161706E807F907C0F0C7
S11313D012161306E407F50798F0621B730B840BCF
S11313E0950B39F40A2661F0232B242B252B21F4A9
S11313F008950A2609F4A140A6958FEF811D811D49
S1131400089597F99F6780E870E060E008959FEF82
S113141080EC089500240A94161617061806090687
S1131420089500240A941216130614060506089556
S1131430092E0394000C11F4882352F0BB0F40F4DE
S1131440BF2B11F460FF04C06F5F7F4F8F4F9F4F1E
S1131450089557FD9058440F551F59F05F3F71F0A0
S11314604795880F97FB991F61F09F3F79F0879507
S11314700895121613061406551FF2CF4695F1DF90
S113148008C0161617061806991FF1CF8695710520
S1131490610508940895E894BB2766277727CB0154
S11314A097F908958ADF08F48FEF0895052E97FBC6
S11314B016F400940FD057FD05D014D007FC02D0C9
S11314C046F408C050954095309521953F4F4F4FB5
S11314D05F4F089590958095709561957F4F8F4FDC
S11314E09F4F0895A1E21A2EAA1BBB1BFD010DC03C
S11314F0AA1FBB1FEE1FFF1FA217B307E407F507C0
S113150020F0A21BB30BE40BF50B661F771F881F9B
S1131510991F1A9469F760957095809590959B0131
S1131520AC01BD01CF010895AEE0B0E0E9E9FAE015
S1131530AAC20D891E8986E08C831A8309838FEFE2
S11315409FE79E838D83AE01475E5F4F6F89788DE1
S1131550CE01019608D0EF81F885E00FF11F1082CB
S11315602E96E4E0ACC2ABE0B0E0E8EBFAE07DC27A
S11315706C017B018A01FC0117821682838181FF41
S1131580BFC1CE0101963C01F6019381F70193FDA1
S1131590859193FF81917F01882309F4ADC1853240
S11315A039F493FD859193FF81917F01853221F474
S11315B0B60190E0C0D1E8CF912C212C312CFFE171
S11315C0F315D8F08B3279F038F4803279F0833225
S11315D0A1F4232D20611DC08D3261F0803369F4A4
S11315E0232D216016C0832D8260382EE32DE46004
S11315F03E2E2AC0F32DF8601DC037FC2DC020ED0F
S1131600280F2A3040F08E32B9F436FC75C1232DF0
S11316102064322E19C036FE06C08AE0989E200D42
S11316201124922E11C0EAE02E9E200D1124222EA8
S1131630F32DF0623F2E08C08C3621F4832D806890
S1131640382E02C0883641F4F70193FD859193FF4B
S113165081917F018111B3CF982F9F7D9554933051
S113166028F40C5F1F4F9FE399830DC0833631F03C
S1131670833771F0833509F055C020C0F8018081AB
S113168089830E5F1F4F88248394912C530112C0C9
S11316902801F2E04F0E511CF801A080B18036FE03
S11316A003C0692D70E002C06FEF7FEFC50138D130
S11316B04C018201F32DFF773F2E15C0280122E053
S11316C0420E511CF801A080B18036FE03C0692D82
S11316D070E002C06FEF7FEFC50117D14C01F32D0D
S11316E0F0683F2E820133FC19C0822D90E08816E9
S11316F09906A0F4B60180E290E01DD12A94F5CFBA
S1131700F50137FC859137FE81915F01B60190E0C8
S113171012D121102A9421E0821A91088114910493
S113172079F7E1C0843611F0893639F5F80137FECE
S113173007C060817181828193810C5F1F4F08C053
S113174060817181072E000C880B990B0E5F1F4F6F
S1131750F32DFF763F2E97FF09C0909580957095E5
S113176061957F4F8F4F9F4FF0683F2E2AE030E006
S1131770A3011DD1882E861844C0853731F4232D4A
S11317802F7EB22E2AE030E025C0932D997FB92E0A
S11317908F36C1F018F4883579F0AEC0803719F06F
S11317A0883721F0A9C0E92FE061BE2EB4FE0DC038
S11317B0FB2DF460BF2E09C034FE0AC0292F266019
S11317C0B22E06C028E030E005C020E130E002C0BF
S11317D020E132E0F801B7FE07C0608171818281A7
S11317E093810C5F1F4F06C06081718180E090E09F
S11317F00E5F1F4FA301DBD0882E8618FB2DFF77C9
S11318003F2E36FE0DC0232D2E7FA22E891458F4B0
S113181034FE0BC032FC09C0832D8E7EA82E05C079
S1131820B82CA32C03C0B82C01C0B92CA4FE0FC043
S1131830FE01E80DF11D8081803321F49A2D997EFB
S1131840A92E09C0A2FE06C0B394B39404C08A2D85
S1131850867809F0B394A3FC10C0A0FE06C0B214AD
S113186080F4280C922C9B180DC0B21458F4B601C5
S113187080E290E060D0B394F8CFB21418F42B183F
S113188002C0982C212CA4FE0FC0B60180E390E086
S113189052D0A2FE16C0A1FC03C088E790E002C0AB
S11318A088E590E0B6010CC08A2D867851F0A1FE3F
S11318B002C08BE201C080E2A7FC8DE2B60190E099
S11318C03AD0891430F4B60180E390E034D09A948D
S11318D0F8CF8A94F301E80DF11D8081B60190E000
S11318E02AD08110F6CF222009F44ECEB60180E230
S11318F090E021D02A94F7CFF6018681978102C027
S11319008FEF9FEF2B96E2E1CCC0FC010590615074
S113191070400110D8F7809590958E0F9F1F089501
S1131920FC016150704001900110D8F780959095AA
S11319308E0F9F1F08950F931F93CF93DF93FB0187
S1131940238121FD03C08FEF9FEF2CC022FF16C01F
S113195046815781248135814217530744F4A0817D
S1131960B1819D012F5F3F4F318320838C9326816A
S113197037812F5F3F4F3783268314C08B01EC01DF
S1131980FB010084F185E02D0995892BE1F6D8014E
S113199016968D919C911797019617969C938E930A
S11319A01697CE01DF91CF911F910F910895FA01FF
S11319B0AA27283051F1203181F1E8946F936E7F8A
S11319C06E5F7F4F8F4F9F4FAF4FB1E03ED0B4E07B
S11319D03CD0670F781F891F9A1FA11D680F791FBC
S11319E08A1F911DA11D6A0F711D811D911DA11DCD
S11319F020D009F468943F912AE0269F11243019DD
S1131A00305D3193DEF6CF010895462F4770405D77
S1131A104193B3E00FD0C9F7F6CF462F4F70405D26
S1131A204A3318F0495D31FD4052419302D0A9F781
S1131A30EACFB4E0A6959795879577956795BA957B
S1131A40C9F700976105710508959B01AC010A2E41
S1131A5006945795479537952795BA95C9F7620F18
S1131A60731F841F951FA01D08952F923F924F92BC
S1131A705F926F927F928F929F92AF92BF92CF921A
S1131A80DF92EF92FF920F931F93CF93DF93CDB723
S1131A90DEB7CA1BDB0B0FB6F894DEBF0FBECDBF9B
S1131AA009942A88398848885F846E847D848C846C
S1131AB09B84AA84B984C884DF80EE80FD800C8175
S1131AC01B81AA81B981CE0FD11D0FB6F894DEBF58
S10F1AD00FBECDBFED010895F894FFCFC8
S1131ADC0A302564003A0049542049532054494D96
S1131AEC4521212100414C41524D0054494D455250
S1131AFC2053455420480054494D455220534554D5
S1131B0C204D00434C4F434B00434C4F434B20530D
S1131B1C4554204800434C4F434B20534554204DCF
S1131B2C0054454D50455241545552450054494D6D
S1071B3C455200000A
S9030000FC
