S00F00006D6574656F4D4E2E7372656360
S113000042C25CC25BC25AC259C258C257C256C22B
S113001055C254C253C2CDC751C250C24FC24EC2C0
S11300204DC24CC24BC24AC249C248C247C246C270
S113003045C244C207634236B79BD8A71A396856EB
S113004018AEBAAB558C1D3CB7CC5763BD6DEDFDF6
S1130050753EF6177231BF000000803F08000000B3
S1130060BE922449123EABAAAA2ABECDCCCC4C3EA9
S113007000000080BEABAAAAAA3E00000000BF0098
S11300800000803F0000000000084178D3BB438794
S1130090D1133D190E3CC3BD4282AD2B3E68EC82A8
S11300A076BED98FE1A93E4C80EFFFBE01C4FF7F2D
S11300B03F0000000000AED5F0A83FD300408D14EF
S11300C02000A1C8DA12813FD922DB20A4A62EAFDA
S11300D022003F21007F000000000000000000001B
S11300E0000000000000000000F800000000000014
S11300F000333000000000100C06100C0600000055
S113010000000000000040C07840C0784000043F78
S113011004043F040400007088FC08300000001848
S113012020FF211E0000F008F000E018000000216C
S11301301C031E211E0000F00888700000001E2110
S113014023241927211010160E00000000000000BF
S1130150000000000000000000E01804020000009D
S113016000071820400000020418E00000000040CE
S1130170201807000000404080F080404000020248
S1130180010F01020200000000F000000000010164
S1130190011F01010100000000000000000080B008
S11301A070000000000000000000000000000001DA
S11301B00101010101010000000000000000003005
S11301C0300000000000000000008060180400609F
S11301D018060100000000E010080810E000000FFD
S11301E0102020100F00001010F800000000002064
S11301F0203F2020000000700808088870000030AC
S11302002824222130000030088888483000001853
S1130210202020110E000000C02010F8000000076C
S11302200424243F240000F80888880808000019E2
S1130230212020110E0000E0108888180000000F13
S1130240112020110E0000380808C83808000000EA
S1130250003F000000000070880808887000001C3F
S1130260222121221C0000E010080810E0000000F8
S1130270312222110F00000000C0C0000000000065
S1130280003030000000000000800000000000008A
S11302908060000000000000804020100800000181
S11302A00204081020004040404040404000040444
S11302B0040404040400000810204080000000200E
S11302C0100804020100007048080808F00000004B
S11302D0003036010000C030C828E810E0000718DC
S11302E0272423140B000000C038E0000000203C49
S11302F023020227382008F8888888700000203FED
S1130300202020110E00C030080808083800071803
S113031020202010080008F808080810E000203FFA
S1130320202020100F0008F88888E8081000203FDB
S113033020202320180008F88888E8081000203FAF
S1130340200003000000C030080808380000071827
S11303502020221E020008F808000008F808203FA8
S1130360210101213F20000808F8080800000020AE
S1130370203F2020000000000808F8080800C08082
S113038080807F00000008F888C028180800203FFB
S113039020012638200008F8080000000000203F53
S11303A020202020300008F8F800F8F80800203F4A
S11303B0003F003F200008F830C00008F808203F44
S11303C0200007183F00E01008080810E0000F1094
S11303D0202020100F0008F808080808F000203F2B
S11303E0210101010000E01008080810E0000F18C6
S11303F0242438504F0008F8888888887000203FEB
S11304002000030C302000708808080838000038E9
S1130410202121221C00180808F8080818000000F0
S1130420203F2000000008F808000008F808001F1A
S1130430202020201F000878880000C83808000009
S113044007380E010000F80800F80008F800033C23
S11304500700073C030008186880806818082030EB
S11304602C03032C30200838C800C83808000000CA
S1130470203F2000000010080808C8380800203871
S113048026212020180011241FBECFEFD4E0DEBFA8
S1130490CDBF11E0A0E0B1E0EEE6FCE102C00590C2
S11304A00D92A236B107D9F721E0A2E6B1E001C06E
S11304B01D92AE37B207E1F76ED5D7CBA1CD2FEFA2
S11304C083ED90E3215080409040E1F700C00000AC
S11304D010926A01089580916A010895CF92DF9283
S11304E0EF92FF92CF93DF9300D000D01F92CDB74D
S11304F0DEB7682F792FFE01319685E0DF011D926A
S11305008A95E9F710926A015E98569A8FE39CE9FE
S11305100197F1F700C000005E9A56982FE10AC0D7
S113052095E09A95F1F70000215021F484E080933E
S11305306A018FC04E99F4CF80916A01882359F0E3
S113054088C0A5E0AA95F1F70000215029F484E0C1
S113055080936A010EC023E34E9BF3CF0AC0B5E03B
S1130560BA95F1F70000215029F484E080936A01E0
S113057070C023E34E99F3CF80916A01882309F474
S113058043C067C085E08A95F1F70000215031F43B
S113059050936A0145E034C0422F24E24E9BF2CFCF
S11305A020916A01211129C09DE59A95F1F7000077
S11305B04E9B1EC0E1E0F0E0EC0FFD1FE40FF11DC7
S11305C02081D701C601032E04C0880F991FAA1FDA
S11305D0BB1F0A94D2F7822B80830AC0A5E0AA9598
S11305E0F1F70000215029F450936A01242F06C02A
S11305F023E34E99F3CF242F01C0242F315062F608
S11306004F5F453038F008C040E0C12CD12C760152
S1130610C39454E037E0C1CF80916A01811119C0BD
S113062099818A81980F8B81980F8C81890F9D8184
S1130630891721F083E080936A010BC0DE011196D3
S1130640E62FF72FCE0105962D912193A817B90710
S1130650D9F780916A010F900F900F900F900F902F
S1130660DF91CF91FF90EF90DF90CF9008958F921C
S11306709F92AF92BF92CF92DF92EF92FF920F932D
S11306801F93CF93DF9300D000D0CDB7DEB78C019A
S11306907B0119821A821B821C82CE0101961EDF05
S11306A0811169C06C818B81882374F48F7770E029
S11306B0782B072E000C880B990BF6D720E030E03E
S11306C040E251EC56D70CC070E0782B072E000C9A
S11306D0880B990BE9D720E030E040E251E449D798
S11306E0F8016083718382839383698170E0762F3C
S11306F066278A81682B072E000C880B990BD4D7A8
S113070020E030E040E251E434D74B015C01F701D2
S11307106083718382839383F801C080D180E280F7
S1130720F38020E030E040E252ECC701B6011DD76F
S113073088234CF020E030E040EA52E4C701B601DF
S113074063D8181624F482E080936A0114C020E070
S113075030E0A901C501B40108D788234CF020E09A
S113076030E048EC52E4C501B4014ED818161CF42C
S113077081E080936A0180916A010F900F900F903D
S11307800F90DF91CF911F910F91FF90EF90DF9029
S1130790CF90BF90AF909F908F900895D6D088E768
S11307A090E0E5D080E090E0E2D00895CED088E7F4
S11307B090E0DDD080E490E0DAD008950F931F93A9
S11307C0CF93DF93EBDFC6EBD0E006ED10E0FE0144
S11307D0849190E0CCD02196C017D107C1F7BED048
S11307E0DF91CF911F910F910895CF93DF93C82F7D
S11307F0D62FD4DFD7708D2F806B90E0B8D08C2F9C
S11308008F7090E0B4D0C295CF708C2F806190E04F
S1130810AED0A4D0DF91CF910895A0D00895CF9306
S1130820DF93D0E06D2F80E0E0DFC0DFC0E880E040
S113083090E09DD0C150D9F7DF5FD83099F7DF91B0
S1130840CF91089590936D0180936C0160936B0137
S113085008958F929F92AF92BF92CF92DF92EF92C0
S1130860FF920F931F93CF93DF936C01962E842EE8
S1130870F901A080AA2009F444C07901FFEFEF1A1E
S1130880FF0AB12C80E2A81AB108AA0CBB1CAA0C5E
S1130890BB1CAA0CBB1CAA0CBB1CE8E7E91510F492
S11308A08394912C682D892DA0DF80DF86010A0DA9
S11308B01B1DE5012896CC0DDD1DF801849190E007
S11308C056D00F5F1F4F0C171D07B9F747D061E0D3
S11308D0680D892D8ADF6ADF8501005F1F4F0C0DCB
S11308E01D1DFE01849190E042D02196C017D107CE
S11308F0C1F734D0F8E09F0EF701A1907F01A11059
S1130900C0CFDF91CF911F910F91FF90EF90DF90B7
S1130910CF90BF90AF909F908F9008959C0140E03E
S113092050E060E47FE180E090E04DD9822F2031F7
S113093048F030E020513109C90199230CF40196A3
S1130940959587958093B800089584EA8093BC00B8
S1130950ECEBF0E080818823ECF7089584E9809340
S1130960BC00ECEBF0E0808184FFFDCF0895809320
S1130970BB0084E88093BC00ECEBF0E0808188232A
S1130980ECF7089584E690E0C9DF18DF60E286EDB5
S113099090E058DF03DF86EA90E0E9DF3EDF3FDFE7
S11309A008959A01462F682F86ED90E052DF08954E
S11309B09B01215031091216130684F4FC01E60F41
S11309C0F71FDC0180E090E04C9152915D934083ED
S11309D001962150310982179307B4F30895CF92F9
S11309E0DF92EF92FF920F931F93CF93DF936B01EC
S11309F08A01009791F0EB01E0E0F0E00F2EFAE0BD
S1130A00EF2EF12CF02D3196B701CAD8805D899371
S1130A10862F972F0097B9F702C0E0E0F0E0E017C7
S1130A20F1075CF4EC0DFD1D9601200F311F80E3EE
S1130A308193E217F307E1F701C08F01B801C60102
S1130A40B7DFE601C00FD11F1882C801DF91CF9133
S1130A501F910F91FF90EF90DF90CF9008952F9208
S1130A603F924F925F926F927F928F929F92AF923A
S1130A70BF92CF92DF92EF92FF920F931F93CF9387
S1130A80DF934B015C018A01E901DBD56B017C0139
S1130A9040E050E0B801C601A2DF1C01209761F1DB
S1130AA0F801E80FF91F8EE28083BE010D2E000CC1
S1130AB0880B990BF9D59B01AC0160E070E080E2F2
S1130AC091E409D72B013C01B601DD0C880B990B8D
S1130AD0EBD59B01AC01C501B401E2D42FEF221A7E
S1130AE0320A020D131DA301920192D6AAD5DC018C
S1130AF0CB01AE01B80173DFDF91CF911F910F914C
S1130B00FF90EF90DF90CF90BF90AF909F908F9029
S1130B107F906F905F904F903F902F9008950F9328
S1130B201F93CF93DF9300D01F92CDB7DEB7182F5A
S1130B30062F842F4A3060F441E050E0BE016F5F1D
S1130B407F4F90E04CDF89818A8380E3898307C0EB
S1130B5042E050E0BE016F5F7F4F90E040DF1B82B8
S1130B60AE014F5F5F4F602F812F1BDF0F900F90FF
S1130B700F90DF91CF911F910F910895AF92CF9273
S1130B80EF920F931F93CF93DF93C82FD62F122F7B
S1130B90E110C5DF41E051E06D2F84E18C0F01DFEE
S1130BA0CC2029F0412F6D2F8EE18C0FB8DFAA20C5
S1130BB059F041E051E06D2F82E38C0FF2DE402FBB
S1130BC06D2F8CE38C0FABDFDF91CF911F910F91D1
S1130BD0EF90CF90AF90089543E051E062E082E05F
S1130BE0E0DE43E051E064E082E0DBDE43E051E03C
S1130BF066E082E0D6DE0895809100018A3011F427
S1130C00EFD208958B3011F40AD308958C3011F487
S1130C1023D30895843111F41CD40895853111F43B
S1130C2025D40895863111F42ED40895883211F410
S1130C3030D308958E3111F443D208958F3111F4D5
S1130C405CD20895803209F475D20895ACD28AE05A
S1130C5080930001089580917201811101C075D3C0
S1130C6084E18093000108958091720181116DD314
S1130C7085E180930001089574D3EDDF0895BED11A
S1130C808EE1809300010895B9D18FE18093000132
S1130C900895C0D1F4DF0895339908C0809100010C
S1130CA08A3021F48BE0809300010895339906C0C3
S1130CB0809100018B3011F433D10895329907C02B
S1130CC0809100018B3009F0F6C03CD108951A9947
S1130CD009C0809100018B3009F0E1C08CE0809361
S1130CE000010895199908C0809100018B3021F406
S1130CF08AE0809300010895339906C08091000131
S1130D008C3011F416D10895329907C080910001F6
S1130D108C3009F0D3C01ED108951A9907C0809170
S1130D2000018C3009F0BDC091DF0895199908C005
S1130D30809100018C3021F48BE0809300010895B0
S1130D40329906C080910001843111F48DDF089539
S1130D50339906C080910001853111F4E1D00895E2
S1130D60329907C080910001853109F0AAC0EAD008
S1130D7008951A9909C080910001853109F093C042
S1130D8086E1809300010895199906C080910001BD
S1130D90853111F460DF0895339906C08091000114
S1130DA0863111F4C6D00895329907C080910001AC
S1130DB0863109F089C0CED008951A9907C0809170
S1130DC00001863109F071C057DF0895199906C0F2
S1130DD080910001863111F447DF08951A9906C005
S1130DE0809100018E3111F44FDF0895339906C0CC
S1130DF0809100018F3111F493D00895329907C086
S1130E00809100018F3109F062C09CD008951A9935
S1130E1009C0809100018F3109F049C080E28093BC
S1130E2000010895199906C0809100018F3111F4D1
S1130E3026DF0895339906C080910001803211F4B1
S1130E4078D00895329907C080910001803209F06A
S1130E5041C080D008951A9906C080910001803263
S1130E6041F517DF0895199906C080910001803279
S1130E7011F40ADF0895339904C08AE080930001D5
S1130E800895329902C0E7DE08951A9902C0F7DE88
S1130E900895199922C088E280930001089583B1CE
S1130EA02BCF83B14DCF83B177CF83B197CF83B1AC
S1130EB0C1CF83B1E0CF1A9BF2CF14CF1A9BF1CFED
S1130EC035CF1A9BF0CF60CF1A9BEFCF7FCF1A9B01
S1130ED0EECFA8CF1A9BEDCFC6CF0895A0DCDCDE01
S1130EE02FEF81EE94E0215080409040E1F700C064
S1130EF0000008958F5F88310CF080E008958F5FC3
S1130F008C330CF080E008958F5F8C330CF080E01C
S1130F10089510927501109273011092740108954E
S1130F20809175018F5F88310CF080E080937501AA
S1130F300895809173018F5F8C330CF080E080936F
S1130F40730108958091750181500AF487E18093BB
S1130F50750108958091730181500AF48BE38093A5
S1130F607301089587B1837F87B984B1897F84B978
S1130F70209A8AB1806A8AB98CE0809381008AE7DA
S1130F808093890082E180938800EFE6F0E080811D
S1130F908262808308957894E5DFF4DC90DA339BF1
S1130FA005C0329B03C01A9B01C0199B97DF24DE46
S1130FB0F6CF1F920F920FB60F9211242F933F93E7
S1130FC04F935F936F937F938F939F93AF93BF934D
S1130FD0EF93FF93CCD0D7D12FD0FF91EF91BF9156
S1130FE0AF919F918F917F916F915F914F913F91BD
S1130FF02F910F900FBE0F901F9018958ADF1092BB
S113100066011092650110926401109263011092BE
S1131010620108958091650181110DC010926201F1
S113102080917501809364018091730180936301C1
S113103081E0809365010895809165018823C9F05A
S113104080916601811115C09091710180916401B4
S113105098130FC090916E0180916301981309C099
S11310609091700180916201981303C081E0809394
S113107066010895AF92CF92EF920F93909165011C
S113108091110AC0AE2CC02EE22E042F262F482F19
S113109062E080E073DD0FC09091660191110AC097
S11310A0AE2CC02EE22E042F262F482F62E080E0C3
S11310B065DD01C091DD0F91EF90CF90AF90089561
S11310C0EF92FF920F931F934EE051E060E080E0B7
S11310D068DC6091630170E080916401E12CF12C83
S11310E001E010E021E030E040E050E090E0C2DFB9
S11310F01F910F91FF90EF900895EF92FF920F933D
S11311001F9344E151E060E080E04BDC60917301A7
S113111070E080917501E12CF12C00E010E021E0F9
S113112030E040E050E090E0A5DF1F910F91FF9088
S1131130EF900895EF92FF920F931F9340E251E0D6
S113114060E080E02EDC6091730170E080917501B5
S1131150E12CF12C01E010E020E030E040E050E030
S113116090E088DF1F910F91FF90EF900895CF9347
S1131170C09170018C2FC8DE80937001CB3389F449
S1131180811108C0C0916E018C2FB9DE80936E016D
S1131190CB3339F480917101811103C0ABDE8093AC
S11311A07101CF910895109270018091750180931F
S11311B071018091730180936E010895AF92CF9273
S11311C0EF920F93AE2CC02EE22E042F262F482F21
S11311D062E080E0D3DC0F91EF90CF90AF90089560
S11311E0EF92FF920F931F934CE251E060E080E096
S11311F0D8DB4091700150E060916E0170E0809105
S11312007101EE24E394F12C01E010E021E030E0E0
S113121090E0D4DF1F910F91FF90EF900895EF922B
S1131220FF920F931F9342E351E060E080E0B9DB4B
S11312306091730170E080917501E12CF12C00E064
S113124010E021E030E040E050E090E0B7DF1F9193
S11312500F91FF90EF900895EF92FF920F931F93D9
S11312604EE351E060E080E09CDB6091730170E04C
S113127080917501E12CF12C01E010E020E030E0D8
S113128040E050E090E09ADF1F910F91FF90EF90C3
S11312900895CF93DF93CDB7DEB72A970FB6F894AE
S11312A0DEBF0FBECDBF4AE451E060E070E080E0F5
S11312B090E077DB6AE771E086E791E0D8D9609146
S11312C0760170917701809178019091790121E004
S11312D030E0AE014F5F5F4FC2DB60917A017091E5
S11312E07B0180917C0190917D0122E030E0AE0190
S11312F04A5F5F4FB4DBEFD881111EC042E551E075
S113130062E070E080E090E04CDBAE014F5F5F4F45
S113131062E070E082E390E044DB47E551E064E0A2
S113132070E080E090E03DDBAE014A5F5F4F64E037
S113133070E082E390E035DB2A960FB6F894DEBFC6
S11313400FBECDBFDF91CF910895E3DD10926F0101
S11313501092720110926901109268011092670153
S113136008958091720181110DC0109267018091DE
S1131370750180936901809173018093680181E014
S113138080937201089580916F01811136C080911C
S11313907201882391F18091670181110CC08091C1
S11313A06801811126C080916901811122C081E008
S11313B080936F010895815080936701882354F4CA
S11313C080916801882354F09BE3909367018150D6
S11313D0809368018091680188237CF4809169017D
S11313E018165CF49BE39093680181508093690123
S11313F008958FEF80936701E3CF0895AF92CF9262
S1131400EF920F939091720191110CC0A42EC62EED
S1131410E82E00E0209173014091750162E080E0C4
S1131420ADDB12C090916F0191110DC0A42EC62E98
S1131430E82E00916701209168014091690162E002
S113144080E09CDB01C0C8DB0F91EF90CF90AF90A0
S113145008954BE551E060E080E0A3DA41E050E01C
S113146061E070E081E090E0C9DF089544E151E07B
S113147060E080E096DA40E050E060E070E081E017
S113148090E0BCDF089540E251E060E080E089DA5A
S113149040E050E061E070E080E090E0AFDF08956C
S11314A05058BB27AA270ED075C166D130F06BD136
S11314B020F031F49F3F11F41EF45BC10EF4E0956B
S11314C0E7FB51C1E92F77D180F3BA17620773079D
S11314D08407950718F071F49EF58FC10EF4E0951A
S11314E00B2EBA2FA02D0B01B90190010C01CA01DA
S11314F0A0011124FF27591B99F0593F50F4503E85
S113150068F11A16F040A22F232F342F4427585F76
S1131510F3CF469537952795A795F0405395C9F78E
S11315207EF41F16BA0B620B730B840BBAF0915046
S1131530A1F0FF0FBB1F661F771F881FC2F70EC0E5
S1131540BA0F621F731F841F48F4879577956795B8
S1131550B795F7959E3F08F0B3CF9395880F08F0A1
S11315609927EE0F979587950895D9D008F481E0CF
S113157008950CD00FC107D140F0FED030F021F413
S11315805F3F19F0F0C0511139C1F3C014D198F381
S11315909923C9F35523B1F3951B550BBB27AA27F0
S11315A062177307840738F09F5F5F4F220F331F62
S11315B0441FAA1FA9F333D00E2E3AF0E0E830D02E
S11315C091505040E695001CCAF729D0FE2F27D031
S11315D0660F771F881FBB1F261737074807AB07FF
S11315E0B0E809F0BB0B802DBF01FF2793585F4F74
S11315F02AF09E3F510568F0B6C000C15F3FECF38E
S1131600983EDCF3869577956795B795F7959F5F38
S1131610C9F7880F911D9695879597F90895E1E08C
S1131620660F771F881FBB1F621773078407BA07EB
S113163020F0621B730B840BBA0BEE1F88F7E09546
S1131640089504D06894B111D9C00895BCD088F02D
S11316509F5790F0B92F9927B751A0F0D1F0660F9A
S1131660771F881F991F1AF0BA95C9F712C0B130B5
S113167081F0C3D0B1E00895C0C0672F782F8827C8
S1131680B85F39F0B93FCCF3869577956795B395F4
S1131690D9F73EF490958095709561957F4F8F4F63
S11316A09F4F0895E89409C097FB3EF49095809568
S11316B0709561957F4F8F4F9F4F9923A9F0F92F14
S11316C096E9BB279395F695879577956795B79592
S11316D0F111F8CFFAF4BB0F11F460FF1BC06F5F78
S11316E07F4F8F4F9F4F16C0882311F096E911C08A
S11316F0772321F09EE8872F762F05C0662371F0AB
S113170096E8862F70E060E02AF09A95660F771FBE
S1131710881FDAF7880F9695879597F90895990F9A
S11317200008550FAA0BE0E8FEEF16161706E807A7
S1131730F907C0F012161306E407F50798F0621BC8
S1131740730B840B950B39F40A2661F0232B242B9D
S1131750252B21F408950A2609F4A140A6958FEFBC
S1131760811D811D089597F99F6780E870E060E00E
S113177008959FEF80EC089500240A941616170626
S113178018060906089500240A941216130614066E
S113179005060895092E0394000C11F4882352F0D1
S11317A0BB0F40F4BF2B11F460FF04C06F5F7F4F89
S11317B08F4F9F4F089557FD9058440F551F59F070
S11317C05F3F71F04795880F97FB991F61F09F3F2A
S11317D079F087950895121613061406551FF2CF53
S11317E04695F1DF08C0161617061806991FF1CFA3
S11317F086957105610508940895E894BB276627CA
S11318007727CB0197F908958ADF08F48FEF0895BD
S11318100BD0C0CFB1DF28F0B6DF18F0952309F064
S1131820A2CFA7CF1124EACFC6DFA0F3959FD1F3AF
S1131830950F50E0551F629FF001729FBB27F00D7A
S1131840B11D639FAA27F00DB11DAA1F649F6627CF
S1131850B00DA11D661F829F2227B00DA11D621F1E
S1131860739FB00DA11D621F839FA00D611D221FD8
S1131870749F3327A00D611D231F849F600D211DBC
S1131880822F762F6A2F11249F5750408AF0E1F05F
S113189088234AF0EE0FFF1FBB1F661F771F881FA8
S11318A091505040A9F79E3F510570F05CCFA6CFF0
S11318B05F3FECF3983EDCF3869577956795B79593
S11318C0F795E7959F5FC1F7FE2B880F911D9695BD
S11318D0879597F90895FA01EE0FFF1F30962105B9
S11318E0310599F16115710561F48038BFE39B07F7
S11318F049F168949038810561F08038BFEF9B0707
S113190041F0992342F5FF3FE1053105210511F12D
S1131910E8940894E795D901AA2329F4AB2FBE2FA4
S1131920F85FD0F310C0FF5F70F4A695E0F7F739C5
S113193050F019F0FF3A38F49F779F930CD00F9032
S113194007FC905808953EF014CF60E070E080E802
S11319509FE308954FE79F775F934F933F932F93B0
S11319609ED02F913F914F915F9152DF05C019F4A2
S11319700EF0F9CE42CFFDCE26DFC8F39638C0F77D
S113198007F80F92E8942BE33AEA48EB5FE74EDF5F
S11319900F920F920F924DB75EB70F92C0D0E4E34F
S11319A0F0E016D04F915F91EF91FF91E595EE1F16
S11319B0FF1F49F0FE57E0684427EE0F441FFA95D5
S11319C0E1F74195550B32D00F9007FE26C00895DC
S11319D0DF93CF931F930F93FF92EF92DF927B01DC
S11319E08C01689405C0DA2EEF011EDFFE01E89435
S11319F0A5912591359145915591AEF3EF0162DDA5
S1131A00FE019701A801DA9479F7DF90EF90FF9037
S1131A100F911F91CF91DF9108959B01AC0160E07C
S1131A2070E080E89FE3A5CD9ECEACC0CCDEE8F3A9
S1131A309923D9F3940F511DBBF39150504094F066
S1131A4059F0882332F0660F771F881F9150504059
S1131A50C1F79E3F510544F7880F911D96958795D0
S1131A6097F908955F3FACF0983E9CF0BB278695AC
S1131A7077956795B79508F4B1609395C1F7BB0F57
S1131A8058F711F460FFE8CF6F5F7F4F8F4F9F4F80
S1131A90E3CFB4CE0EF076C06CCE689464CE93DE01
S1131AA0C8F39923D1F3C6F3DF93CF931F930F9316
S1131AB0FF92C92FDD2788232AF02197660F771F0D
S1131AC0881FDAF720E030E040E85FEB9FE38839D5
S1131AD020F0803E30F021968F77E3DCECE5F0E0F7
S1131AE003C0DFDCE9E8F0E073DF8B01BE01EC0149
S1131AF0FB2E6F5771097595771F880B990BD4DDF1
S1131B0028E132E741E35FE38FDEAF2D9801AE01B8
S1131B10FF900F911F91CF91DF91D4DC3BCEFA015E
S1131B20DC01AA0FBB1F9B01AC01BF5728F422277D
S1131B303327442750781FC0B75188F4AB2F0024B3
S1131B40469537952795011CA395D2F3002069F09B
S1131B50220F331F441FB395DAF30DD0A1CC6130AB
S1131B607105A0E88A07B94630F49B01AC016627E9
S1131B70772788279078309621F020833183428319
S1131B80538308959F3F31F0915020F487957795C2
S1131B906795B795880F911D9695879597F9089540
S1131BA097FB072E16F4009406D077FD08D027D0B3
S1131BB007FC05D03EF4909581959F4F089570954C
S1131BC061957F4F0895052E97FB16F400940FD06E
S1131BD057FD05D028D007FC02D046F408C0509524
S1131BE04095309521953F4F4F4F5F4F0895909505
S1131BF08095709561957F4F8F4F9F4F0895AA1BD5
S1131C00BB1B51E107C0AA1FBB1FA617B70710F0E3
S1131C10A61BB70B881F991F5A95A9F78095909515
S1131C20BC01CD010895A1E21A2EAA1BBB1BFD0124
S1131C300DC0AA1FBB1FEE1FFF1FA217B307E407A7
S1131C40F50720F0A21BB30BE40BF50B661F771FFF
S1131C50881F991F1A9469F76095709580959095DF
S1111C609B01AC01BD01CF010895F894FFCFA4
S1131C6E0A3A0049542049532054494D4500414CE9
S1131C7E41524D0054494D4552205345542048007D
S1131C8E54494D455220534554204D00434C4F4327
S1131C9E4B00434C4F434B20534554204800434C78
S1131CAE4F434B20534554204D005745415448450E
S1131CBE520054454D500048554D0054494D45521F
S1051CCE000010
S9030000FC
